{"contracts/ComplianceModule.sol":{"ComplianceModule":{"abi":[{"inputs":[{"internalType":"address","name":"_registry","type":"address"}],"stateMutability":"nonpayable","type":"constructor"},{"inputs":[{"internalType":"address","name":"owner","type":"address"}],"name":"OwnableInvalidOwner","type":"error"},{"inputs":[{"internalType":"address","name":"account","type":"address"}],"name":"OwnableUnauthorizedAccount","type":"error"},{"inputs":[],"name":"ReentrancyGuardReentrantCall","type":"error"},{"anonymous":false,"inputs":[{"indexed":true,"internalType":"address","name":"user","type":"address"}],"name":"AddressBlacklisted","type":"event"},{"anonymous":false,"inputs":[{"indexed":true,"internalType":"address","name":"user","type":"address"}],"name":"AddressWhitelisted","type":"event"},{"anonymous":false,"inputs":[{"indexed":false,"internalType":"bool","name":"enabled","type":"bool"}],"name":"BlacklistToggled","type":"event"},{"anonymous":false,"inputs":[{"indexed":false,"internalType":"string","name":"country","type":"string"}],"name":"CountryAllowed","type":"event"},{"anonymous":false,"inputs":[{"indexed":false,"internalType":"string","name":"country","type":"string"}],"name":"CountryDisallowed","type":"event"},{"anonymous":false,"inputs":[{"indexed":false,"internalType":"bool","name":"enabled","type":"bool"}],"name":"CountryRestrictionsToggled","type":"event"},{"anonymous":false,"inputs":[{"indexed":false,"internalType":"uint256","name":"limit","type":"uint256"}],"name":"DailyTransferLimitSet","type":"event"},{"anonymous":false,"inputs":[{"indexed":false,"internalType":"uint256","name":"amount","type":"uint256"}],"name":"MaxTransferAmountSet","type":"event"},{"anonymous":false,"inputs":[{"indexed":true,"internalType":"address","name":"previousOwner","type":"address"},{"indexed":true,"internalType":"address","name":"newOwner","type":"address"}],"name":"OwnershipTransferred","type":"event"},{"inputs":[{"internalType":"string","name":"","type":"string"}],"name":"allowedCountries","outputs":[{"internalType":"bool","name":"","type":"bool"}],"stateMutability":"view","type":"function"},{"inputs":[{"internalType":"address[]","name":"users","type":"address[]"},{"internalType":"bool[]","name":"blacklisted","type":"bool[]"}],"name":"batchSetAddressesBlacklisted","outputs":[],"stateMutability":"nonpayable","type":"function"},{"inputs":[{"internalType":"string[]","name":"countries","type":"string[]"},{"internalType":"bool[]","name":"allowed","type":"bool[]"}],"name":"batchSetCountriesAllowed","outputs":[],"stateMutability":"nonpayable","type":"function"},{"inputs":[],"name":"blacklistEnabled","outputs":[{"internalType":"bool","name":"","type":"bool"}],"stateMutability":"view","type":"function"},{"inputs":[{"internalType":"address","name":"","type":"address"}],"name":"blacklistedAddresses","outputs":[{"internalType":"bool","name":"","type":"bool"}],"stateMutability":"view","type":"function"},{"inputs":[],"name":"countryRestrictionsEnabled","outputs":[{"internalType":"bool","name":"","type":"bool"}],"stateMutability":"view","type":"function"},{"inputs":[],"name":"dailyTransferLimit","outputs":[{"internalType":"uint256","name":"","type":"uint256"}],"stateMutability":"view","type":"function"},{"inputs":[{"internalType":"address","name":"","type":"address"},{"internalType":"uint256","name":"","type":"uint256"}],"name":"dailyTransfers","outputs":[{"internalType":"uint256","name":"","type":"uint256"}],"stateMutability":"view","type":"function"},{"inputs":[{"internalType":"address","name":"user","type":"address"}],"name":"getCurrentDayTransferAmount","outputs":[{"internalType":"uint256","name":"","type":"uint256"}],"stateMutability":"view","type":"function"},{"inputs":[{"internalType":"address","name":"user","type":"address"},{"internalType":"uint256","name":"day","type":"uint256"}],"name":"getDailyTransferAmount","outputs":[{"internalType":"uint256","name":"","type":"uint256"}],"stateMutability":"view","type":"function"},{"inputs":[{"internalType":"address","name":"user","type":"address"}],"name":"getRemainingDailyLimit","outputs":[{"internalType":"uint256","name":"","type":"uint256"}],"stateMutability":"view","type":"function"},{"inputs":[{"internalType":"address","name":"user","type":"address"}],"name":"isAddressBlacklisted","outputs":[{"internalType":"bool","name":"","type":"bool"}],"stateMutability":"view","type":"function"},{"inputs":[{"internalType":"string","name":"_country","type":"string"}],"name":"isCountryAllowed","outputs":[{"internalType":"bool","name":"","type":"bool"}],"stateMutability":"view","type":"function"},{"inputs":[{"internalType":"address","name":"from","type":"address"},{"internalType":"address","name":"to","type":"address"}],"name":"isTransferAllowed","outputs":[{"internalType":"bool","name":"","type":"bool"}],"stateMutability":"view","type":"function"},{"inputs":[{"internalType":"address","name":"from","type":"address"},{"internalType":"address","name":"to","type":"address"},{"internalType":"uint256","name":"amount","type":"uint256"}],"name":"isTransferAllowedWithAmount","outputs":[{"internalType":"bool","name":"","type":"bool"}],"stateMutability":"view","type":"function"},{"inputs":[],"name":"maxTransferAmount","outputs":[{"internalType":"uint256","name":"","type":"uint256"}],"stateMutability":"view","type":"function"},{"inputs":[],"name":"owner","outputs":[{"internalType":"address","name":"","type":"address"}],"stateMutability":"view","type":"function"},{"inputs":[{"internalType":"address","name":"from","type":"address"},{"internalType":"uint256","name":"amount","type":"uint256"}],"name":"recordTransfer","outputs":[],"stateMutability":"nonpayable","type":"function"},{"inputs":[],"name":"registry","outputs":[{"internalType":"contract IdentityRegistry","name":"","type":"address"}],"stateMutability":"view","type":"function"},{"inputs":[],"name":"renounceOwnership","outputs":[],"stateMutability":"nonpayable","type":"function"},{"inputs":[{"internalType":"address","name":"user","type":"address"},{"internalType":"bool","name":"blacklisted","type":"bool"}],"name":"setAddressBlacklisted","outputs":[],"stateMutability":"nonpayable","type":"function"},{"inputs":[{"internalType":"string","name":"_country","type":"string"},{"internalType":"bool","name":"allowed","type":"bool"}],"name":"setCountryAllowed","outputs":[],"stateMutability":"nonpayable","type":"function"},{"inputs":[{"internalType":"uint256","name":"limit","type":"uint256"}],"name":"setDailyTransferLimit","outputs":[],"stateMutability":"nonpayable","type":"function"},{"inputs":[{"internalType":"uint256","name":"amount","type":"uint256"}],"name":"setMaxTransferAmount","outputs":[],"stateMutability":"nonpayable","type":"function"},{"inputs":[{"internalType":"bool","name":"enabled","type":"bool"}],"name":"toggleBlacklist","outputs":[],"stateMutability":"nonpayable","type":"function"},{"inputs":[{"internalType":"bool","name":"enabled","type":"bool"}],"name":"toggleCountryRestrictions","outputs":[],"stateMutability":"nonpayable","type":"function"},{"inputs":[{"internalType":"address","name":"newOwner","type":"address"}],"name":"transferOwnership","outputs":[],"stateMutability":"nonpayable","type":"function"}],"evm":{"bytecode":{"linkReferences":{},"object":"60a060405234801561001057600080fd5b50604051611b6a380380611b6a83398101604081905261002f91610135565b338061005657604051631e4fbdf760e01b8152600060048201526024015b60405180910390fd5b61005f816100e5565b50600180556001600160a01b0381166100ba5760405162461bcd60e51b815260206004820152601860248201527f496e76616c696420726567697374727920616464726573730000000000000000604482015260640161004d565b6001600160a01b03166080526004805461ffff19166101001790556000196005819055600655610165565b600080546001600160a01b038381166001600160a01b0319831681178455604051919092169283917f8be0079c531659141344cd1fd0a4f28419497f9722a3daafe3b4186f6b6457e09190a35050565b60006020828403121561014757600080fd5b81516001600160a01b038116811461015e57600080fd5b9392505050565b6080516119ce61019c6000396000818161025f01528181611060015281816110f101528181611198015261122e01526119ce6000f3fe608060405234801561001057600080fd5b50600436106101a95760003560e01c806397e2b9af116100f9578063d5749d4211610097578063e89c0cae11610071578063e89c0cae146103be578063ec37d259146103ec578063f2fde38b146103ff578063f714af6f1461041257600080fd5b8063d5749d4214610375578063d842542d14610398578063e5f81ba8146103ab57600080fd5b8063ae6d125d116100d3578063ae6d125d1461032a578063bffb691d1461033d578063c79841961461034f578063cdfca2d11461036257600080fd5b806397e2b9af146102fb578063a31bcff41461030e578063a9e757231461032157600080fd5b806373ac83ef116101665780638752183f116101405780638752183f146102995780638bf55409146102c45780638da5cb5b146102d757806390683e8c146102e857600080fd5b806373ac83ef146102345780637572a9db146102475780637b1039991461025a57600080fd5b80630d8c8b81146101ae5780633c2d4370146101d057806354769c7c146101f15780635991d72d146102045780635b1d60ec14610219578063715018a61461022c575b600080fd5b6004546101bb9060ff1681565b60405190151581526020015b60405180910390f35b6101e36101de366004611413565b61041b565b6040519081526020016101c7565b6101bb6101ff36600461143d565b610446565b6102176102123660046114d1565b61045d565b005b6101e3610227366004611528565b6105a2565b6102176105df565b610217610242366004611413565b6105f3565b610217610255366004611543565b610691565b6102817f000000000000000000000000000000000000000000000000000000000000000081565b6040516001600160a01b0390911681526020016101c7565b6101e36102a7366004611413565b600760209081526000928352604080842090915290825290205481565b6102176102d2366004611560565b6106ed565b6000546001600160a01b0316610281565b6101bb6102f6366004611528565b61072a565b6101bb610309366004611579565b610763565b61021761031c3660046115f1565b610771565b6101e360055481565b610217610338366004611662565b610a39565b6004546101bb90610100900460ff1681565b6101bb61035d366004611699565b610b2b565b610217610370366004611560565b610b6d565b6101bb610383366004611528565b60036020526000908152604090205460ff1681565b6102176103a6366004611543565b610baa565b6102176103b93660046115f1565b610bf3565b6101bb6103cc36600461174a565b805160208183018101805160028252928201919093012091525460ff1681565b6101e36103fa366004611528565b610f1a565b61021761040d366004611528565b610f7b565b6101e360065481565b6001600160a01b03821660009081526007602090815260408083208484529091529020545b92915050565b6000610453848484610fb9565b90505b9392505050565b61046561137a565b816104b15760405162461bcd60e51b8152602060048201526017602482015276436f756e7472792063616e6e6f7420626520656d70747960481b60448201526064015b60405180910390fd5b60328211156104fa5760405162461bcd60e51b8152602060048201526015602482015274436f756e747279206e616d6520746f6f206c6f6e6760581b60448201526064016104a8565b806002848460405161050d9291906117ca565b908152604051908190036020019020805491151560ff199092169190911790558015610571577f575662e52602903dd01c608fbd6b89a4ca8eeca709ad678f0ac222557da6932383836040516105649291906117da565b60405180910390a1505050565b7f8d7bd3108747131fc344660ee7e041f60e59e35ff2aa8c3f1a8f60d0ee87cd0983836040516105649291906117da565b6000806105b2620151804261181f565b6001600160a01b039093166000908152600760209081526040808320958352949052929092205492915050565b6105e761137a565b6105f160006113a7565b565b6001600160a01b0382166106405760405162461bcd60e51b8152602060048201526014602482015273496e76616c69642066726f6d206164647265737360601b60448201526064016104a8565b600061064f620151804261181f565b6001600160a01b0384166000908152600760209081526040808320848452909152812080549293508492909190610687908490611841565b9091555050505050565b61069961137a565b600480548215156101000261ff00199091161790556040517fccd519f48168e6686a60c17f498beb5648a34293377366f8fb272f23a19aa674906106e290831515815260200190565b60405180910390a150565b6106f561137a565b60058190556040518181527fd82d7466dbfb0b68291841d1adf74df365a848cd534d11e8c6b238ec9fb5ebe6906020016106e2565b600454600090610100900460ff1661074457506000919050565b506001600160a01b031660009081526003602052604090205460ff1690565b600061045683836000610fb9565b61077961137a565b8281146107c15760405162461bcd60e51b8152602060048201526016602482015275082e4e4c2f2e640d8cadccee8d040dad2e6dac2e8c6d60531b60448201526064016104a8565b826107fd5760405162461bcd60e51b815260206004820152600c60248201526b456d7074792061727261797360a01b60448201526064016104a8565b60648311156108455760405162461bcd60e51b815260206004820152601460248201527342617463682073697a6520746f6f206c6172676560601b60448201526064016104a8565b60005b83811015610a3257600085858381811061086457610864611854565b90506020020160208101906108799190611528565b6001600160a01b0316036108c65760405162461bcd60e51b8152602060048201526014602482015273496e76616c69642075736572206164647265737360601b60448201526064016104a8565b8282828181106108d8576108d8611854565b90506020020160208101906108ed9190611543565b6003600087878581811061090357610903611854565b90506020020160208101906109189190611528565b6001600160a01b031681526020810191909152604001600020805460ff191691151591909117905582828281811061095257610952611854565b90506020020160208101906109679190611543565b156109cd5784848281811061097e5761097e611854565b90506020020160208101906109939190611528565b6001600160a01b03167fdaf49ab9345b6cb75bcb5a7f726bff9183c34dcf5c098c385730f9fd893765f660405160405180910390a2610a2a565b8484828181106109df576109df611854565b90506020020160208101906109f49190611528565b6001600160a01b03167f4f783c179409b4127238bc9c990bc99b9a651666a0d20b51d6c42849eb88466d60405160405180910390a25b600101610848565b5050505050565b610a4161137a565b6001600160a01b038216610a8e5760405162461bcd60e51b8152602060048201526014602482015273496e76616c69642075736572206164647265737360601b60448201526064016104a8565b6001600160a01b0382166000908152600360205260409020805460ff19168215801591909117909155610af3576040516001600160a01b038316907fdaf49ab9345b6cb75bcb5a7f726bff9183c34dcf5c098c385730f9fd893765f690600090a25050565b6040516001600160a01b038316907f4f783c179409b4127238bc9c990bc99b9a651666a0d20b51d6c42849eb88466d90600090a25050565b60045460009060ff16610b4057506001610440565b60028383604051610b529291906117ca565b9081526040519081900360200190205460ff16905092915050565b610b7561137a565b60068190556040518181527f5e85f048c530ff8a1a8a4622cb6c7894a0f8366e32cf7e61c1367be3431c106b906020016106e2565b610bb261137a565b6004805460ff19168215159081179091556040519081527fcee01ef3e406b28bfacfca596efe0d2db5f6870757cdc806b8494ac2467fb6da906020016106e2565b610bfb61137a565b828114610c435760405162461bcd60e51b8152602060048201526016602482015275082e4e4c2f2e640d8cadccee8d040dad2e6dac2e8c6d60531b60448201526064016104a8565b82610c7f5760405162461bcd60e51b815260206004820152600c60248201526b456d7074792061727261797360a01b60448201526064016104a8565b6032831115610cc75760405162461bcd60e51b815260206004820152601460248201527342617463682073697a6520746f6f206c6172676560601b60448201526064016104a8565b60005b83811015610a32576000858583818110610ce657610ce6611854565b9050602002810190610cf8919061186a565b905011610d415760405162461bcd60e51b8152602060048201526017602482015276436f756e7472792063616e6e6f7420626520656d70747960481b60448201526064016104a8565b6032858583818110610d5557610d55611854565b9050602002810190610d67919061186a565b90501115610daf5760405162461bcd60e51b8152602060048201526015602482015274436f756e747279206e616d6520746f6f206c6f6e6760581b60448201526064016104a8565b828282818110610dc157610dc1611854565b9050602002016020810190610dd69190611543565b6002868684818110610dea57610dea611854565b9050602002810190610dfc919061186a565b604051610e0a9291906117ca565b908152604051908190036020019020805491151560ff19909216919091179055828282818110610e3c57610e3c611854565b9050602002016020810190610e519190611543565b15610eb6577f575662e52602903dd01c608fbd6b89a4ca8eeca709ad678f0ac222557da69323858583818110610e8957610e89611854565b9050602002810190610e9b919061186a565b604051610ea99291906117da565b60405180910390a1610f12565b7f8d7bd3108747131fc344660ee7e041f60e59e35ff2aa8c3f1a8f60d0ee87cd09858583818110610ee957610ee9611854565b9050602002810190610efb919061186a565b604051610f099291906117da565b60405180910390a15b600101610cca565b600080610f2a620151804261181f565b6001600160a01b0384166000908152600760209081526040808320848452909152902054600654919250908110610f65575060009392505050565b80600654610f7391906118b1565b949350505050565b610f8361137a565b6001600160a01b038116610fad57604051631e4fbdf760e01b8152600060048201526024016104a8565b610fb6816113a7565b50565b60006001600160a01b0384161580610fd857506001600160a01b038316155b15610fe557506001610456565b600454610100900460ff1615611041576001600160a01b03841660009081526003602052604090205460ff168061103457506001600160a01b03831660009081526003602052604090205460ff165b1561104157506000610456565b60405163b9209e3360e01b81526001600160a01b0385811660048301527f0000000000000000000000000000000000000000000000000000000000000000169063b9209e3390602401602060405180830381865afa1580156110a7573d6000803e3d6000fd5b505050506040513d601f19601f820116820180604052508101906110cb91906118c4565b158061115e575060405163b9209e3360e01b81526001600160a01b0384811660048301527f0000000000000000000000000000000000000000000000000000000000000000169063b9209e3390602401602060405180830381865afa158015611138573d6000803e3d6000fd5b505050506040513d601f19601f8201168201806040525081019061115c91906118c4565b155b1561116b57506000610456565b60045460ff161561130157604051630b2c5ab760e21b81526001600160a01b0385811660048301526000917f000000000000000000000000000000000000000000000000000000000000000090911690632cb16adc90602401600060405180830381865afa1580156111e1573d6000803e3d6000fd5b505050506040513d6000823e601f3d908101601f191682016040526112099190810190611905565b604051630b2c5ab760e21b81526001600160a01b0386811660048301529192506000917f00000000000000000000000000000000000000000000000000000000000000001690632cb16adc90602401600060405180830381865afa158015611275573d6000803e3d6000fd5b505050506040513d6000823e601f3d908101601f1916820160405261129d9190810190611905565b90506002826040516112af919061197c565b9081526040519081900360200190205460ff1615806112ee57506002816040516112d9919061197c565b9081526040519081900360200190205460ff16155b156112fe57600092505050610456565b50505b81156113705760055482111561131957506000610456565b6000611328620151804261181f565b6006546001600160a01b03871660009081526007602090815260408083208584529091529020549192509061135e908590611841565b111561136e576000915050610456565b505b5060019392505050565b6000546001600160a01b031633146105f15760405163118cdaa760e01b81523360048201526024016104a8565b600080546001600160a01b038381166001600160a01b0319831681178455604051919092169283917f8be0079c531659141344cd1fd0a4f28419497f9722a3daafe3b4186f6b6457e09190a35050565b80356001600160a01b038116811461140e57600080fd5b919050565b6000806040838503121561142657600080fd5b61142f836113f7565b946020939093013593505050565b60008060006060848603121561145257600080fd5b61145b846113f7565b9250611469602085016113f7565b929592945050506040919091013590565b60008083601f84011261148c57600080fd5b50813567ffffffffffffffff8111156114a457600080fd5b6020830191508360208285010111156114bc57600080fd5b9250929050565b8015158114610fb657600080fd5b6000806000604084860312156114e657600080fd5b833567ffffffffffffffff8111156114fd57600080fd5b6115098682870161147a565b909450925050602084013561151d816114c3565b809150509250925092565b60006020828403121561153a57600080fd5b610456826113f7565b60006020828403121561155557600080fd5b8135610456816114c3565b60006020828403121561157257600080fd5b5035919050565b6000806040838503121561158c57600080fd5b611595836113f7565b91506115a3602084016113f7565b90509250929050565b60008083601f8401126115be57600080fd5b50813567ffffffffffffffff8111156115d657600080fd5b6020830191508360208260051b85010111156114bc57600080fd5b6000806000806040858703121561160757600080fd5b843567ffffffffffffffff81111561161e57600080fd5b61162a878288016115ac565b909550935050602085013567ffffffffffffffff81111561164a57600080fd5b611656878288016115ac565b95989497509550505050565b6000806040838503121561167557600080fd5b61167e836113f7565b9150602083013561168e816114c3565b809150509250929050565b600080602083850312156116ac57600080fd5b823567ffffffffffffffff8111156116c357600080fd5b6116cf8582860161147a565b90969095509350505050565b634e487b7160e01b600052604160045260246000fd5b604051601f8201601f1916810167ffffffffffffffff8111828210171561171a5761171a6116db565b604052919050565b600067ffffffffffffffff82111561173c5761173c6116db565b50601f01601f191660200190565b60006020828403121561175c57600080fd5b813567ffffffffffffffff81111561177357600080fd5b8201601f8101841361178457600080fd5b803561179761179282611722565b6116f1565b8181528560208385010111156117ac57600080fd5b81602084016020830137600091810160200191909152949350505050565b8183823760009101908152919050565b60208152816020820152818360408301376000818301604090810191909152601f909201601f19160101919050565b634e487b7160e01b600052601160045260246000fd5b60008261183c57634e487b7160e01b600052601260045260246000fd5b500490565b8082018082111561044057610440611809565b634e487b7160e01b600052603260045260246000fd5b6000808335601e1984360301811261188157600080fd5b83018035915067ffffffffffffffff82111561189c57600080fd5b6020019150368190038213156114bc57600080fd5b8181038181111561044057610440611809565b6000602082840312156118d657600080fd5b8151610456816114c3565b60005b838110156118fc5781810151838201526020016118e4565b50506000910152565b60006020828403121561191757600080fd5b815167ffffffffffffffff81111561192e57600080fd5b8201601f8101841361193f57600080fd5b805161194d61179282611722565b81815285602083850101111561196257600080fd5b6119738260208301602086016118e1565b95945050505050565b6000825161198e8184602087016118e1565b919091019291505056fea2646970667358221220b94adda5bd66b061a5c1fa8e7f3c516c5f7e33f3fae30de29dbd6727b395153c64736f6c634300081c0033","opcodes":"PUSH1 0xA0 PUSH1 0x40 MSTORE CALLVALUE DUP1 ISZERO PUSH2 0x10 JUMPI PUSH1 0x0 DUP1 REVERT JUMPDEST POP PUSH1 0x40 MLOAD PUSH2 0x1B6A CODESIZE SUB DUP1 PUSH2 0x1B6A DUP4 CODECOPY DUP2 ADD PUSH1 0x40 DUP2 SWAP1 MSTORE PUSH2 0x2F SWAP2 PUSH2 0x135 JUMP JUMPDEST CALLER DUP1 PUSH2 0x56 JUMPI PUSH1 0x40 MLOAD PUSH4 0x1E4FBDF7 PUSH1 0xE0 SHL DUP2 MSTORE PUSH1 0x0 PUSH1 0x4 DUP3 ADD MSTORE PUSH1 0x24 ADD JUMPDEST PUSH1 0x40 MLOAD DUP1 SWAP2 SUB SWAP1 REVERT JUMPDEST PUSH2 0x5F DUP2 PUSH2 0xE5 JUMP JUMPDEST POP PUSH1 0x1 DUP1 SSTORE PUSH1 0x1 PUSH1 0x1 PUSH1 0xA0 SHL SUB DUP2 AND PUSH2 0xBA JUMPI PUSH1 0x40 MLOAD PUSH3 0x461BCD PUSH1 0xE5 SHL DUP2 MSTORE PUSH1 0x20 PUSH1 0x4 DUP3 ADD MSTORE PUSH1 0x18 PUSH1 0x24 DUP3 ADD MSTORE PUSH32 0x496E76616C696420726567697374727920616464726573730000000000000000 PUSH1 0x44 DUP3 ADD MSTORE PUSH1 0x64 ADD PUSH2 0x4D JUMP JUMPDEST PUSH1 0x1 PUSH1 0x1 PUSH1 0xA0 SHL SUB AND PUSH1 0x80 MSTORE PUSH1 0x4 DUP1 SLOAD PUSH2 0xFFFF NOT AND PUSH2 0x100 OR SWAP1 SSTORE PUSH1 0x0 NOT PUSH1 0x5 DUP2 SWAP1 SSTORE PUSH1 0x6 SSTORE PUSH2 0x165 JUMP JUMPDEST PUSH1 0x0 DUP1 SLOAD PUSH1 0x1 PUSH1 0x1 PUSH1 0xA0 SHL SUB DUP4 DUP2 AND PUSH1 0x1 PUSH1 0x1 PUSH1 0xA0 SHL SUB NOT DUP4 AND DUP2 OR DUP5 SSTORE PUSH1 0x40 MLOAD SWAP2 SWAP1 SWAP3 AND SWAP3 DUP4 SWAP2 PUSH32 0x8BE0079C531659141344CD1FD0A4F28419497F9722A3DAAFE3B4186F6B6457E0 SWAP2 SWAP1 LOG3 POP POP JUMP JUMPDEST PUSH1 0x0 PUSH1 0x20 DUP3 DUP5 SUB SLT ISZERO PUSH2 0x147 JUMPI PUSH1 0x0 DUP1 REVERT JUMPDEST DUP2 MLOAD PUSH1 0x1 PUSH1 0x1 PUSH1 0xA0 SHL SUB DUP2 AND DUP2 EQ PUSH2 0x15E JUMPI PUSH1 0x0 DUP1 REVERT JUMPDEST SWAP4 SWAP3 POP POP POP JUMP JUMPDEST PUSH1 0x80 MLOAD PUSH2 0x19CE PUSH2 0x19C PUSH1 0x0 CODECOPY PUSH1 0x0 DUP2 DUP2 PUSH2 0x25F ADD MSTORE DUP2 DUP2 PUSH2 0x1060 ADD MSTORE DUP2 DUP2 PUSH2 0x10F1 ADD MSTORE DUP2 DUP2 PUSH2 0x1198 ADD MSTORE PUSH2 0x122E ADD MSTORE PUSH2 0x19CE PUSH1 0x0 RETURN INVALID PUSH1 0x80 PUSH1 0x40 MSTORE CALLVALUE DUP1 ISZERO PUSH2 0x10 JUMPI PUSH1 0x0 DUP1 REVERT JUMPDEST POP PUSH1 0x4 CALLDATASIZE LT PUSH2 0x1A9 JUMPI PUSH1 0x0 CALLDATALOAD PUSH1 0xE0 SHR DUP1 PUSH4 0x97E2B9AF GT PUSH2 0xF9 JUMPI DUP1 PUSH4 0xD5749D42 GT PUSH2 0x97 JUMPI DUP1 PUSH4 0xE89C0CAE GT PUSH2 0x71 JUMPI DUP1 PUSH4 0xE89C0CAE EQ PUSH2 0x3BE JUMPI DUP1 PUSH4 0xEC37D259 EQ PUSH2 0x3EC JUMPI DUP1 PUSH4 0xF2FDE38B EQ PUSH2 0x3FF JUMPI DUP1 PUSH4 0xF714AF6F EQ PUSH2 0x412 JUMPI PUSH1 0x0 DUP1 REVERT JUMPDEST DUP1 PUSH4 0xD5749D42 EQ PUSH2 0x375 JUMPI DUP1 PUSH4 0xD842542D EQ PUSH2 0x398 JUMPI DUP1 PUSH4 0xE5F81BA8 EQ PUSH2 0x3AB JUMPI PUSH1 0x0 DUP1 REVERT JUMPDEST DUP1 PUSH4 0xAE6D125D GT PUSH2 0xD3 JUMPI DUP1 PUSH4 0xAE6D125D EQ PUSH2 0x32A JUMPI DUP1 PUSH4 0xBFFB691D EQ PUSH2 0x33D JUMPI DUP1 PUSH4 0xC7984196 EQ PUSH2 0x34F JUMPI DUP1 PUSH4 0xCDFCA2D1 EQ PUSH2 0x362 JUMPI PUSH1 0x0 DUP1 REVERT JUMPDEST DUP1 PUSH4 0x97E2B9AF EQ PUSH2 0x2FB JUMPI DUP1 PUSH4 0xA31BCFF4 EQ PUSH2 0x30E JUMPI DUP1 PUSH4 0xA9E75723 EQ PUSH2 0x321 JUMPI PUSH1 0x0 DUP1 REVERT JUMPDEST DUP1 PUSH4 0x73AC83EF GT PUSH2 0x166 JUMPI DUP1 PUSH4 0x8752183F GT PUSH2 0x140 JUMPI DUP1 PUSH4 0x8752183F EQ PUSH2 0x299 JUMPI DUP1 PUSH4 0x8BF55409 EQ PUSH2 0x2C4 JUMPI DUP1 PUSH4 0x8DA5CB5B EQ PUSH2 0x2D7 JUMPI DUP1 PUSH4 0x90683E8C EQ PUSH2 0x2E8 JUMPI PUSH1 0x0 DUP1 REVERT JUMPDEST DUP1 PUSH4 0x73AC83EF EQ PUSH2 0x234 JUMPI DUP1 PUSH4 0x7572A9DB EQ PUSH2 0x247 JUMPI DUP1 PUSH4 0x7B103999 EQ PUSH2 0x25A JUMPI PUSH1 0x0 DUP1 REVERT JUMPDEST DUP1 PUSH4 0xD8C8B81 EQ PUSH2 0x1AE JUMPI DUP1 PUSH4 0x3C2D4370 EQ PUSH2 0x1D0 JUMPI DUP1 PUSH4 0x54769C7C EQ PUSH2 0x1F1 JUMPI DUP1 PUSH4 0x5991D72D EQ PUSH2 0x204 JUMPI DUP1 PUSH4 0x5B1D60EC EQ PUSH2 0x219 JUMPI DUP1 PUSH4 0x715018A6 EQ PUSH2 0x22C JUMPI JUMPDEST PUSH1 0x0 DUP1 REVERT JUMPDEST PUSH1 0x4 SLOAD PUSH2 0x1BB SWAP1 PUSH1 0xFF AND DUP2 JUMP JUMPDEST PUSH1 0x40 MLOAD SWAP1 ISZERO ISZERO DUP2 MSTORE PUSH1 0x20 ADD JUMPDEST PUSH1 0x40 MLOAD DUP1 SWAP2 SUB SWAP1 RETURN JUMPDEST PUSH2 0x1E3 PUSH2 0x1DE CALLDATASIZE PUSH1 0x4 PUSH2 0x1413 JUMP JUMPDEST PUSH2 0x41B JUMP JUMPDEST PUSH1 0x40 MLOAD SWAP1 DUP2 MSTORE PUSH1 0x20 ADD PUSH2 0x1C7 JUMP JUMPDEST PUSH2 0x1BB PUSH2 0x1FF CALLDATASIZE PUSH1 0x4 PUSH2 0x143D JUMP JUMPDEST PUSH2 0x446 JUMP JUMPDEST PUSH2 0x217 PUSH2 0x212 CALLDATASIZE PUSH1 0x4 PUSH2 0x14D1 JUMP JUMPDEST PUSH2 0x45D JUMP JUMPDEST STOP JUMPDEST PUSH2 0x1E3 PUSH2 0x227 CALLDATASIZE PUSH1 0x4 PUSH2 0x1528 JUMP JUMPDEST PUSH2 0x5A2 JUMP JUMPDEST PUSH2 0x217 PUSH2 0x5DF JUMP JUMPDEST PUSH2 0x217 PUSH2 0x242 CALLDATASIZE PUSH1 0x4 PUSH2 0x1413 JUMP JUMPDEST PUSH2 0x5F3 JUMP JUMPDEST PUSH2 0x217 PUSH2 0x255 CALLDATASIZE PUSH1 0x4 PUSH2 0x1543 JUMP JUMPDEST PUSH2 0x691 JUMP JUMPDEST PUSH2 0x281 PUSH32 0x0 DUP2 JUMP JUMPDEST PUSH1 0x40 MLOAD PUSH1 0x1 PUSH1 0x1 PUSH1 0xA0 SHL SUB SWAP1 SWAP2 AND DUP2 MSTORE PUSH1 0x20 ADD PUSH2 0x1C7 JUMP JUMPDEST PUSH2 0x1E3 PUSH2 0x2A7 CALLDATASIZE PUSH1 0x4 PUSH2 0x1413 JUMP JUMPDEST PUSH1 0x7 PUSH1 0x20 SWAP1 DUP2 MSTORE PUSH1 0x0 SWAP3 DUP4 MSTORE PUSH1 0x40 DUP1 DUP5 KECCAK256 SWAP1 SWAP2 MSTORE SWAP1 DUP3 MSTORE SWAP1 KECCAK256 SLOAD DUP2 JUMP JUMPDEST PUSH2 0x217 PUSH2 0x2D2 CALLDATASIZE PUSH1 0x4 PUSH2 0x1560 JUMP JUMPDEST PUSH2 0x6ED JUMP JUMPDEST PUSH1 0x0 SLOAD PUSH1 0x1 PUSH1 0x1 PUSH1 0xA0 SHL SUB AND PUSH2 0x281 JUMP JUMPDEST PUSH2 0x1BB PUSH2 0x2F6 CALLDATASIZE PUSH1 0x4 PUSH2 0x1528 JUMP JUMPDEST PUSH2 0x72A JUMP JUMPDEST PUSH2 0x1BB PUSH2 0x309 CALLDATASIZE PUSH1 0x4 PUSH2 0x1579 JUMP JUMPDEST PUSH2 0x763 JUMP JUMPDEST PUSH2 0x217 PUSH2 0x31C CALLDATASIZE PUSH1 0x4 PUSH2 0x15F1 JUMP JUMPDEST PUSH2 0x771 JUMP JUMPDEST PUSH2 0x1E3 PUSH1 0x5 SLOAD DUP2 JUMP JUMPDEST PUSH2 0x217 PUSH2 0x338 CALLDATASIZE PUSH1 0x4 PUSH2 0x1662 JUMP JUMPDEST PUSH2 0xA39 JUMP JUMPDEST PUSH1 0x4 SLOAD PUSH2 0x1BB SWAP1 PUSH2 0x100 SWAP1 DIV PUSH1 0xFF AND DUP2 JUMP JUMPDEST PUSH2 0x1BB PUSH2 0x35D CALLDATASIZE PUSH1 0x4 PUSH2 0x1699 JUMP JUMPDEST PUSH2 0xB2B JUMP JUMPDEST PUSH2 0x217 PUSH2 0x370 CALLDATASIZE PUSH1 0x4 PUSH2 0x1560 JUMP JUMPDEST PUSH2 0xB6D JUMP JUMPDEST PUSH2 0x1BB PUSH2 0x383 CALLDATASIZE PUSH1 0x4 PUSH2 0x1528 JUMP JUMPDEST PUSH1 0x3 PUSH1 0x20 MSTORE PUSH1 0x0 SWAP1 DUP2 MSTORE PUSH1 0x40 SWAP1 KECCAK256 SLOAD PUSH1 0xFF AND DUP2 JUMP JUMPDEST PUSH2 0x217 PUSH2 0x3A6 CALLDATASIZE PUSH1 0x4 PUSH2 0x1543 JUMP JUMPDEST PUSH2 0xBAA JUMP JUMPDEST PUSH2 0x217 PUSH2 0x3B9 CALLDATASIZE PUSH1 0x4 PUSH2 0x15F1 JUMP JUMPDEST PUSH2 0xBF3 JUMP JUMPDEST PUSH2 0x1BB PUSH2 0x3CC CALLDATASIZE PUSH1 0x4 PUSH2 0x174A JUMP JUMPDEST DUP1 MLOAD PUSH1 0x20 DUP2 DUP4 ADD DUP2 ADD DUP1 MLOAD PUSH1 0x2 DUP3 MSTORE SWAP3 DUP3 ADD SWAP2 SWAP1 SWAP4 ADD KECCAK256 SWAP2 MSTORE SLOAD PUSH1 0xFF AND DUP2 JUMP JUMPDEST PUSH2 0x1E3 PUSH2 0x3FA CALLDATASIZE PUSH1 0x4 PUSH2 0x1528 JUMP JUMPDEST PUSH2 0xF1A JUMP JUMPDEST PUSH2 0x217 PUSH2 0x40D CALLDATASIZE PUSH1 0x4 PUSH2 0x1528 JUMP JUMPDEST PUSH2 0xF7B JUMP JUMPDEST PUSH2 0x1E3 PUSH1 0x6 SLOAD DUP2 JUMP JUMPDEST PUSH1 0x1 PUSH1 0x1 PUSH1 0xA0 SHL SUB DUP3 AND PUSH1 0x0 SWAP1 DUP2 MSTORE PUSH1 0x7 PUSH1 0x20 SWAP1 DUP2 MSTORE PUSH1 0x40 DUP1 DUP4 KECCAK256 DUP5 DUP5 MSTORE SWAP1 SWAP2 MSTORE SWAP1 KECCAK256 SLOAD JUMPDEST SWAP3 SWAP2 POP POP JUMP JUMPDEST PUSH1 0x0 PUSH2 0x453 DUP5 DUP5 DUP5 PUSH2 0xFB9 JUMP JUMPDEST SWAP1 POP JUMPDEST SWAP4 SWAP3 POP POP POP JUMP JUMPDEST PUSH2 0x465 PUSH2 0x137A JUMP JUMPDEST DUP2 PUSH2 0x4B1 JUMPI PUSH1 0x40 MLOAD PUSH3 0x461BCD PUSH1 0xE5 SHL DUP2 MSTORE PUSH1 0x20 PUSH1 0x4 DUP3 ADD MSTORE PUSH1 0x17 PUSH1 0x24 DUP3 ADD MSTORE PUSH23 0x436F756E7472792063616E6E6F7420626520656D707479 PUSH1 0x48 SHL PUSH1 0x44 DUP3 ADD MSTORE PUSH1 0x64 ADD JUMPDEST PUSH1 0x40 MLOAD DUP1 SWAP2 SUB SWAP1 REVERT JUMPDEST PUSH1 0x32 DUP3 GT ISZERO PUSH2 0x4FA JUMPI PUSH1 0x40 MLOAD PUSH3 0x461BCD PUSH1 0xE5 SHL DUP2 MSTORE PUSH1 0x20 PUSH1 0x4 DUP3 ADD MSTORE PUSH1 0x15 PUSH1 0x24 DUP3 ADD MSTORE PUSH21 0x436F756E747279206E616D6520746F6F206C6F6E67 PUSH1 0x58 SHL PUSH1 0x44 DUP3 ADD MSTORE PUSH1 0x64 ADD PUSH2 0x4A8 JUMP JUMPDEST DUP1 PUSH1 0x2 DUP5 DUP5 PUSH1 0x40 MLOAD PUSH2 0x50D SWAP3 SWAP2 SWAP1 PUSH2 0x17CA JUMP JUMPDEST SWAP1 DUP2 MSTORE PUSH1 0x40 MLOAD SWAP1 DUP2 SWAP1 SUB PUSH1 0x20 ADD SWAP1 KECCAK256 DUP1 SLOAD SWAP2 ISZERO ISZERO PUSH1 0xFF NOT SWAP1 SWAP3 AND SWAP2 SWAP1 SWAP2 OR SWAP1 SSTORE DUP1 ISZERO PUSH2 0x571 JUMPI PUSH32 0x575662E52602903DD01C608FBD6B89A4CA8EECA709AD678F0AC222557DA69323 DUP4 DUP4 PUSH1 0x40 MLOAD PUSH2 0x564 SWAP3 SWAP2 SWAP1 PUSH2 0x17DA JUMP JUMPDEST PUSH1 0x40 MLOAD DUP1 SWAP2 SUB SWAP1 LOG1 POP POP POP JUMP JUMPDEST PUSH32 0x8D7BD3108747131FC344660EE7E041F60E59E35FF2AA8C3F1A8F60D0EE87CD09 DUP4 DUP4 PUSH1 0x40 MLOAD PUSH2 0x564 SWAP3 SWAP2 SWAP1 PUSH2 0x17DA JUMP JUMPDEST PUSH1 0x0 DUP1 PUSH2 0x5B2 PUSH3 0x15180 TIMESTAMP PUSH2 0x181F JUMP JUMPDEST PUSH1 0x1 PUSH1 0x1 PUSH1 0xA0 SHL SUB SWAP1 SWAP4 AND PUSH1 0x0 SWAP1 DUP2 MSTORE PUSH1 0x7 PUSH1 0x20 SWAP1 DUP2 MSTORE PUSH1 0x40 DUP1 DUP4 KECCAK256 SWAP6 DUP4 MSTORE SWAP5 SWAP1 MSTORE SWAP3 SWAP1 SWAP3 KECCAK256 SLOAD SWAP3 SWAP2 POP POP JUMP JUMPDEST PUSH2 0x5E7 PUSH2 0x137A JUMP JUMPDEST PUSH2 0x5F1 PUSH1 0x0 PUSH2 0x13A7 JUMP JUMPDEST JUMP JUMPDEST PUSH1 0x1 PUSH1 0x1 PUSH1 0xA0 SHL SUB DUP3 AND PUSH2 0x640 JUMPI PUSH1 0x40 MLOAD PUSH3 0x461BCD PUSH1 0xE5 SHL DUP2 MSTORE PUSH1 0x20 PUSH1 0x4 DUP3 ADD MSTORE PUSH1 0x14 PUSH1 0x24 DUP3 ADD MSTORE PUSH20 0x496E76616C69642066726F6D2061646472657373 PUSH1 0x60 SHL PUSH1 0x44 DUP3 ADD MSTORE PUSH1 0x64 ADD PUSH2 0x4A8 JUMP JUMPDEST PUSH1 0x0 PUSH2 0x64F PUSH3 0x15180 TIMESTAMP PUSH2 0x181F JUMP JUMPDEST PUSH1 0x1 PUSH1 0x1 PUSH1 0xA0 SHL SUB DUP5 AND PUSH1 0x0 SWAP1 DUP2 MSTORE PUSH1 0x7 PUSH1 0x20 SWAP1 DUP2 MSTORE PUSH1 0x40 DUP1 DUP4 KECCAK256 DUP5 DUP5 MSTORE SWAP1 SWAP2 MSTORE DUP2 KECCAK256 DUP1 SLOAD SWAP3 SWAP4 POP DUP5 SWAP3 SWAP1 SWAP2 SWAP1 PUSH2 0x687 SWAP1 DUP5 SWAP1 PUSH2 0x1841 JUMP JUMPDEST SWAP1 SWAP2 SSTORE POP POP POP POP POP JUMP JUMPDEST PUSH2 0x699 PUSH2 0x137A JUMP JUMPDEST PUSH1 0x4 DUP1 SLOAD DUP3 ISZERO ISZERO PUSH2 0x100 MUL PUSH2 0xFF00 NOT SWAP1 SWAP2 AND OR SWAP1 SSTORE PUSH1 0x40 MLOAD PUSH32 0xCCD519F48168E6686A60C17F498BEB5648A34293377366F8FB272F23A19AA674 SWAP1 PUSH2 0x6E2 SWAP1 DUP4 ISZERO ISZERO DUP2 MSTORE PUSH1 0x20 ADD SWAP1 JUMP JUMPDEST PUSH1 0x40 MLOAD DUP1 SWAP2 SUB SWAP1 LOG1 POP JUMP JUMPDEST PUSH2 0x6F5 PUSH2 0x137A JUMP JUMPDEST PUSH1 0x5 DUP2 SWAP1 SSTORE PUSH1 0x40 MLOAD DUP2 DUP2 MSTORE PUSH32 0xD82D7466DBFB0B68291841D1ADF74DF365A848CD534D11E8C6B238EC9FB5EBE6 SWAP1 PUSH1 0x20 ADD PUSH2 0x6E2 JUMP JUMPDEST PUSH1 0x4 SLOAD PUSH1 0x0 SWAP1 PUSH2 0x100 SWAP1 DIV PUSH1 0xFF AND PUSH2 0x744 JUMPI POP PUSH1 0x0 SWAP2 SWAP1 POP JUMP JUMPDEST POP PUSH1 0x1 PUSH1 0x1 PUSH1 0xA0 SHL SUB AND PUSH1 0x0 SWAP1 DUP2 MSTORE PUSH1 0x3 PUSH1 0x20 MSTORE PUSH1 0x40 SWAP1 KECCAK256 SLOAD PUSH1 0xFF AND SWAP1 JUMP JUMPDEST PUSH1 0x0 PUSH2 0x456 DUP4 DUP4 PUSH1 0x0 PUSH2 0xFB9 JUMP JUMPDEST PUSH2 0x779 PUSH2 0x137A JUMP JUMPDEST DUP3 DUP2 EQ PUSH2 0x7C1 JUMPI PUSH1 0x40 MLOAD PUSH3 0x461BCD PUSH1 0xE5 SHL DUP2 MSTORE PUSH1 0x20 PUSH1 0x4 DUP3 ADD MSTORE PUSH1 0x16 PUSH1 0x24 DUP3 ADD MSTORE PUSH22 0x82E4E4C2F2E640D8CADCCEE8D040DAD2E6DAC2E8C6D PUSH1 0x53 SHL PUSH1 0x44 DUP3 ADD MSTORE PUSH1 0x64 ADD PUSH2 0x4A8 JUMP JUMPDEST DUP3 PUSH2 0x7FD JUMPI PUSH1 0x40 MLOAD PUSH3 0x461BCD PUSH1 0xE5 SHL DUP2 MSTORE PUSH1 0x20 PUSH1 0x4 DUP3 ADD MSTORE PUSH1 0xC PUSH1 0x24 DUP3 ADD MSTORE PUSH12 0x456D70747920617272617973 PUSH1 0xA0 SHL PUSH1 0x44 DUP3 ADD MSTORE PUSH1 0x64 ADD PUSH2 0x4A8 JUMP JUMPDEST PUSH1 0x64 DUP4 GT ISZERO PUSH2 0x845 JUMPI PUSH1 0x40 MLOAD PUSH3 0x461BCD PUSH1 0xE5 SHL DUP2 MSTORE PUSH1 0x20 PUSH1 0x4 DUP3 ADD MSTORE PUSH1 0x14 PUSH1 0x24 DUP3 ADD MSTORE PUSH20 0x42617463682073697A6520746F6F206C61726765 PUSH1 0x60 SHL PUSH1 0x44 DUP3 ADD MSTORE PUSH1 0x64 ADD PUSH2 0x4A8 JUMP JUMPDEST PUSH1 0x0 JUMPDEST DUP4 DUP2 LT ISZERO PUSH2 0xA32 JUMPI PUSH1 0x0 DUP6 DUP6 DUP4 DUP2 DUP2 LT PUSH2 0x864 JUMPI PUSH2 0x864 PUSH2 0x1854 JUMP JUMPDEST SWAP1 POP PUSH1 0x20 MUL ADD PUSH1 0x20 DUP2 ADD SWAP1 PUSH2 0x879 SWAP2 SWAP1 PUSH2 0x1528 JUMP JUMPDEST PUSH1 0x1 PUSH1 0x1 PUSH1 0xA0 SHL SUB AND SUB PUSH2 0x8C6 JUMPI PUSH1 0x40 MLOAD PUSH3 0x461BCD PUSH1 0xE5 SHL DUP2 MSTORE PUSH1 0x20 PUSH1 0x4 DUP3 ADD MSTORE PUSH1 0x14 PUSH1 0x24 DUP3 ADD MSTORE PUSH20 0x496E76616C696420757365722061646472657373 PUSH1 0x60 SHL PUSH1 0x44 DUP3 ADD MSTORE PUSH1 0x64 ADD PUSH2 0x4A8 JUMP JUMPDEST DUP3 DUP3 DUP3 DUP2 DUP2 LT PUSH2 0x8D8 JUMPI PUSH2 0x8D8 PUSH2 0x1854 JUMP JUMPDEST SWAP1 POP PUSH1 0x20 MUL ADD PUSH1 0x20 DUP2 ADD SWAP1 PUSH2 0x8ED SWAP2 SWAP1 PUSH2 0x1543 JUMP JUMPDEST PUSH1 0x3 PUSH1 0x0 DUP8 DUP8 DUP6 DUP2 DUP2 LT PUSH2 0x903 JUMPI PUSH2 0x903 PUSH2 0x1854 JUMP JUMPDEST SWAP1 POP PUSH1 0x20 MUL ADD PUSH1 0x20 DUP2 ADD SWAP1 PUSH2 0x918 SWAP2 SWAP1 PUSH2 0x1528 JUMP JUMPDEST PUSH1 0x1 PUSH1 0x1 PUSH1 0xA0 SHL SUB AND DUP2 MSTORE PUSH1 0x20 DUP2 ADD SWAP2 SWAP1 SWAP2 MSTORE PUSH1 0x40 ADD PUSH1 0x0 KECCAK256 DUP1 SLOAD PUSH1 0xFF NOT AND SWAP2 ISZERO ISZERO SWAP2 SWAP1 SWAP2 OR SWAP1 SSTORE DUP3 DUP3 DUP3 DUP2 DUP2 LT PUSH2 0x952 JUMPI PUSH2 0x952 PUSH2 0x1854 JUMP JUMPDEST SWAP1 POP PUSH1 0x20 MUL ADD PUSH1 0x20 DUP2 ADD SWAP1 PUSH2 0x967 SWAP2 SWAP1 PUSH2 0x1543 JUMP JUMPDEST ISZERO PUSH2 0x9CD JUMPI DUP5 DUP5 DUP3 DUP2 DUP2 LT PUSH2 0x97E JUMPI PUSH2 0x97E PUSH2 0x1854 JUMP JUMPDEST SWAP1 POP PUSH1 0x20 MUL ADD PUSH1 0x20 DUP2 ADD SWAP1 PUSH2 0x993 SWAP2 SWAP1 PUSH2 0x1528 JUMP JUMPDEST PUSH1 0x1 PUSH1 0x1 PUSH1 0xA0 SHL SUB AND PUSH32 0xDAF49AB9345B6CB75BCB5A7F726BFF9183C34DCF5C098C385730F9FD893765F6 PUSH1 0x40 MLOAD PUSH1 0x40 MLOAD DUP1 SWAP2 SUB SWAP1 LOG2 PUSH2 0xA2A JUMP JUMPDEST DUP5 DUP5 DUP3 DUP2 DUP2 LT PUSH2 0x9DF JUMPI PUSH2 0x9DF PUSH2 0x1854 JUMP JUMPDEST SWAP1 POP PUSH1 0x20 MUL ADD PUSH1 0x20 DUP2 ADD SWAP1 PUSH2 0x9F4 SWAP2 SWAP1 PUSH2 0x1528 JUMP JUMPDEST PUSH1 0x1 PUSH1 0x1 PUSH1 0xA0 SHL SUB AND PUSH32 0x4F783C179409B4127238BC9C990BC99B9A651666A0D20B51D6C42849EB88466D PUSH1 0x40 MLOAD PUSH1 0x40 MLOAD DUP1 SWAP2 SUB SWAP1 LOG2 JUMPDEST PUSH1 0x1 ADD PUSH2 0x848 JUMP JUMPDEST POP POP POP POP POP JUMP JUMPDEST PUSH2 0xA41 PUSH2 0x137A JUMP JUMPDEST PUSH1 0x1 PUSH1 0x1 PUSH1 0xA0 SHL SUB DUP3 AND PUSH2 0xA8E JUMPI PUSH1 0x40 MLOAD PUSH3 0x461BCD PUSH1 0xE5 SHL DUP2 MSTORE PUSH1 0x20 PUSH1 0x4 DUP3 ADD MSTORE PUSH1 0x14 PUSH1 0x24 DUP3 ADD MSTORE PUSH20 0x496E76616C696420757365722061646472657373 PUSH1 0x60 SHL PUSH1 0x44 DUP3 ADD MSTORE PUSH1 0x64 ADD PUSH2 0x4A8 JUMP JUMPDEST PUSH1 0x1 PUSH1 0x1 PUSH1 0xA0 SHL SUB DUP3 AND PUSH1 0x0 SWAP1 DUP2 MSTORE PUSH1 0x3 PUSH1 0x20 MSTORE PUSH1 0x40 SWAP1 KECCAK256 DUP1 SLOAD PUSH1 0xFF NOT AND DUP3 ISZERO DUP1 ISZERO SWAP2 SWAP1 SWAP2 OR SWAP1 SWAP2 SSTORE PUSH2 0xAF3 JUMPI PUSH1 0x40 MLOAD PUSH1 0x1 PUSH1 0x1 PUSH1 0xA0 SHL SUB DUP4 AND SWAP1 PUSH32 0xDAF49AB9345B6CB75BCB5A7F726BFF9183C34DCF5C098C385730F9FD893765F6 SWAP1 PUSH1 0x0 SWAP1 LOG2 POP POP JUMP JUMPDEST PUSH1 0x40 MLOAD PUSH1 0x1 PUSH1 0x1 PUSH1 0xA0 SHL SUB DUP4 AND SWAP1 PUSH32 0x4F783C179409B4127238BC9C990BC99B9A651666A0D20B51D6C42849EB88466D SWAP1 PUSH1 0x0 SWAP1 LOG2 POP POP JUMP JUMPDEST PUSH1 0x4 SLOAD PUSH1 0x0 SWAP1 PUSH1 0xFF AND PUSH2 0xB40 JUMPI POP PUSH1 0x1 PUSH2 0x440 JUMP JUMPDEST PUSH1 0x2 DUP4 DUP4 PUSH1 0x40 MLOAD PUSH2 0xB52 SWAP3 SWAP2 SWAP1 PUSH2 0x17CA JUMP JUMPDEST SWAP1 DUP2 MSTORE PUSH1 0x40 MLOAD SWAP1 DUP2 SWAP1 SUB PUSH1 0x20 ADD SWAP1 KECCAK256 SLOAD PUSH1 0xFF AND SWAP1 POP SWAP3 SWAP2 POP POP JUMP JUMPDEST PUSH2 0xB75 PUSH2 0x137A JUMP JUMPDEST PUSH1 0x6 DUP2 SWAP1 SSTORE PUSH1 0x40 MLOAD DUP2 DUP2 MSTORE PUSH32 0x5E85F048C530FF8A1A8A4622CB6C7894A0F8366E32CF7E61C1367BE3431C106B SWAP1 PUSH1 0x20 ADD PUSH2 0x6E2 JUMP JUMPDEST PUSH2 0xBB2 PUSH2 0x137A JUMP JUMPDEST PUSH1 0x4 DUP1 SLOAD PUSH1 0xFF NOT AND DUP3 ISZERO ISZERO SWAP1 DUP2 OR SWAP1 SWAP2 SSTORE PUSH1 0x40 MLOAD SWAP1 DUP2 MSTORE PUSH32 0xCEE01EF3E406B28BFACFCA596EFE0D2DB5F6870757CDC806B8494AC2467FB6DA SWAP1 PUSH1 0x20 ADD PUSH2 0x6E2 JUMP JUMPDEST PUSH2 0xBFB PUSH2 0x137A JUMP JUMPDEST DUP3 DUP2 EQ PUSH2 0xC43 JUMPI PUSH1 0x40 MLOAD PUSH3 0x461BCD PUSH1 0xE5 SHL DUP2 MSTORE PUSH1 0x20 PUSH1 0x4 DUP3 ADD MSTORE PUSH1 0x16 PUSH1 0x24 DUP3 ADD MSTORE PUSH22 0x82E4E4C2F2E640D8CADCCEE8D040DAD2E6DAC2E8C6D PUSH1 0x53 SHL PUSH1 0x44 DUP3 ADD MSTORE PUSH1 0x64 ADD PUSH2 0x4A8 JUMP JUMPDEST DUP3 PUSH2 0xC7F JUMPI PUSH1 0x40 MLOAD PUSH3 0x461BCD PUSH1 0xE5 SHL DUP2 MSTORE PUSH1 0x20 PUSH1 0x4 DUP3 ADD MSTORE PUSH1 0xC PUSH1 0x24 DUP3 ADD MSTORE PUSH12 0x456D70747920617272617973 PUSH1 0xA0 SHL PUSH1 0x44 DUP3 ADD MSTORE PUSH1 0x64 ADD PUSH2 0x4A8 JUMP JUMPDEST PUSH1 0x32 DUP4 GT ISZERO PUSH2 0xCC7 JUMPI PUSH1 0x40 MLOAD PUSH3 0x461BCD PUSH1 0xE5 SHL DUP2 MSTORE PUSH1 0x20 PUSH1 0x4 DUP3 ADD MSTORE PUSH1 0x14 PUSH1 0x24 DUP3 ADD MSTORE PUSH20 0x42617463682073697A6520746F6F206C61726765 PUSH1 0x60 SHL PUSH1 0x44 DUP3 ADD MSTORE PUSH1 0x64 ADD PUSH2 0x4A8 JUMP JUMPDEST PUSH1 0x0 JUMPDEST DUP4 DUP2 LT ISZERO PUSH2 0xA32 JUMPI PUSH1 0x0 DUP6 DUP6 DUP4 DUP2 DUP2 LT PUSH2 0xCE6 JUMPI PUSH2 0xCE6 PUSH2 0x1854 JUMP JUMPDEST SWAP1 POP PUSH1 0x20 MUL DUP2 ADD SWAP1 PUSH2 0xCF8 SWAP2 SWAP1 PUSH2 0x186A JUMP JUMPDEST SWAP1 POP GT PUSH2 0xD41 JUMPI PUSH1 0x40 MLOAD PUSH3 0x461BCD PUSH1 0xE5 SHL DUP2 MSTORE PUSH1 0x20 PUSH1 0x4 DUP3 ADD MSTORE PUSH1 0x17 PUSH1 0x24 DUP3 ADD MSTORE PUSH23 0x436F756E7472792063616E6E6F7420626520656D707479 PUSH1 0x48 SHL PUSH1 0x44 DUP3 ADD MSTORE PUSH1 0x64 ADD PUSH2 0x4A8 JUMP JUMPDEST PUSH1 0x32 DUP6 DUP6 DUP4 DUP2 DUP2 LT PUSH2 0xD55 JUMPI PUSH2 0xD55 PUSH2 0x1854 JUMP JUMPDEST SWAP1 POP PUSH1 0x20 MUL DUP2 ADD SWAP1 PUSH2 0xD67 SWAP2 SWAP1 PUSH2 0x186A JUMP JUMPDEST SWAP1 POP GT ISZERO PUSH2 0xDAF JUMPI PUSH1 0x40 MLOAD PUSH3 0x461BCD PUSH1 0xE5 SHL DUP2 MSTORE PUSH1 0x20 PUSH1 0x4 DUP3 ADD MSTORE PUSH1 0x15 PUSH1 0x24 DUP3 ADD MSTORE PUSH21 0x436F756E747279206E616D6520746F6F206C6F6E67 PUSH1 0x58 SHL PUSH1 0x44 DUP3 ADD MSTORE PUSH1 0x64 ADD PUSH2 0x4A8 JUMP JUMPDEST DUP3 DUP3 DUP3 DUP2 DUP2 LT PUSH2 0xDC1 JUMPI PUSH2 0xDC1 PUSH2 0x1854 JUMP JUMPDEST SWAP1 POP PUSH1 0x20 MUL ADD PUSH1 0x20 DUP2 ADD SWAP1 PUSH2 0xDD6 SWAP2 SWAP1 PUSH2 0x1543 JUMP JUMPDEST PUSH1 0x2 DUP7 DUP7 DUP5 DUP2 DUP2 LT PUSH2 0xDEA JUMPI PUSH2 0xDEA PUSH2 0x1854 JUMP JUMPDEST SWAP1 POP PUSH1 0x20 MUL DUP2 ADD SWAP1 PUSH2 0xDFC SWAP2 SWAP1 PUSH2 0x186A JUMP JUMPDEST PUSH1 0x40 MLOAD PUSH2 0xE0A SWAP3 SWAP2 SWAP1 PUSH2 0x17CA JUMP JUMPDEST SWAP1 DUP2 MSTORE PUSH1 0x40 MLOAD SWAP1 DUP2 SWAP1 SUB PUSH1 0x20 ADD SWAP1 KECCAK256 DUP1 SLOAD SWAP2 ISZERO ISZERO PUSH1 0xFF NOT SWAP1 SWAP3 AND SWAP2 SWAP1 SWAP2 OR SWAP1 SSTORE DUP3 DUP3 DUP3 DUP2 DUP2 LT PUSH2 0xE3C JUMPI PUSH2 0xE3C PUSH2 0x1854 JUMP JUMPDEST SWAP1 POP PUSH1 0x20 MUL ADD PUSH1 0x20 DUP2 ADD SWAP1 PUSH2 0xE51 SWAP2 SWAP1 PUSH2 0x1543 JUMP JUMPDEST ISZERO PUSH2 0xEB6 JUMPI PUSH32 0x575662E52602903DD01C608FBD6B89A4CA8EECA709AD678F0AC222557DA69323 DUP6 DUP6 DUP4 DUP2 DUP2 LT PUSH2 0xE89 JUMPI PUSH2 0xE89 PUSH2 0x1854 JUMP JUMPDEST SWAP1 POP PUSH1 0x20 MUL DUP2 ADD SWAP1 PUSH2 0xE9B SWAP2 SWAP1 PUSH2 0x186A JUMP JUMPDEST PUSH1 0x40 MLOAD PUSH2 0xEA9 SWAP3 SWAP2 SWAP1 PUSH2 0x17DA JUMP JUMPDEST PUSH1 0x40 MLOAD DUP1 SWAP2 SUB SWAP1 LOG1 PUSH2 0xF12 JUMP JUMPDEST PUSH32 0x8D7BD3108747131FC344660EE7E041F60E59E35FF2AA8C3F1A8F60D0EE87CD09 DUP6 DUP6 DUP4 DUP2 DUP2 LT PUSH2 0xEE9 JUMPI PUSH2 0xEE9 PUSH2 0x1854 JUMP JUMPDEST SWAP1 POP PUSH1 0x20 MUL DUP2 ADD SWAP1 PUSH2 0xEFB SWAP2 SWAP1 PUSH2 0x186A JUMP JUMPDEST PUSH1 0x40 MLOAD PUSH2 0xF09 SWAP3 SWAP2 SWAP1 PUSH2 0x17DA JUMP JUMPDEST PUSH1 0x40 MLOAD DUP1 SWAP2 SUB SWAP1 LOG1 JUMPDEST PUSH1 0x1 ADD PUSH2 0xCCA JUMP JUMPDEST PUSH1 0x0 DUP1 PUSH2 0xF2A PUSH3 0x15180 TIMESTAMP PUSH2 0x181F JUMP JUMPDEST PUSH1 0x1 PUSH1 0x1 PUSH1 0xA0 SHL SUB DUP5 AND PUSH1 0x0 SWAP1 DUP2 MSTORE PUSH1 0x7 PUSH1 0x20 SWAP1 DUP2 MSTORE PUSH1 0x40 DUP1 DUP4 KECCAK256 DUP5 DUP5 MSTORE SWAP1 SWAP2 MSTORE SWAP1 KECCAK256 SLOAD PUSH1 0x6 SLOAD SWAP2 SWAP3 POP SWAP1 DUP2 LT PUSH2 0xF65 JUMPI POP PUSH1 0x0 SWAP4 SWAP3 POP POP POP JUMP JUMPDEST DUP1 PUSH1 0x6 SLOAD PUSH2 0xF73 SWAP2 SWAP1 PUSH2 0x18B1 JUMP JUMPDEST SWAP5 SWAP4 POP POP POP POP JUMP JUMPDEST PUSH2 0xF83 PUSH2 0x137A JUMP JUMPDEST PUSH1 0x1 PUSH1 0x1 PUSH1 0xA0 SHL SUB DUP2 AND PUSH2 0xFAD JUMPI PUSH1 0x40 MLOAD PUSH4 0x1E4FBDF7 PUSH1 0xE0 SHL DUP2 MSTORE PUSH1 0x0 PUSH1 0x4 DUP3 ADD MSTORE PUSH1 0x24 ADD PUSH2 0x4A8 JUMP JUMPDEST PUSH2 0xFB6 DUP2 PUSH2 0x13A7 JUMP JUMPDEST POP JUMP JUMPDEST PUSH1 0x0 PUSH1 0x1 PUSH1 0x1 PUSH1 0xA0 SHL SUB DUP5 AND ISZERO DUP1 PUSH2 0xFD8 JUMPI POP PUSH1 0x1 PUSH1 0x1 PUSH1 0xA0 SHL SUB DUP4 AND ISZERO JUMPDEST ISZERO PUSH2 0xFE5 JUMPI POP PUSH1 0x1 PUSH2 0x456 JUMP JUMPDEST PUSH1 0x4 SLOAD PUSH2 0x100 SWAP1 DIV PUSH1 0xFF AND ISZERO PUSH2 0x1041 JUMPI PUSH1 0x1 PUSH1 0x1 PUSH1 0xA0 SHL SUB DUP5 AND PUSH1 0x0 SWAP1 DUP2 MSTORE PUSH1 0x3 PUSH1 0x20 MSTORE PUSH1 0x40 SWAP1 KECCAK256 SLOAD PUSH1 0xFF AND DUP1 PUSH2 0x1034 JUMPI POP PUSH1 0x1 PUSH1 0x1 PUSH1 0xA0 SHL SUB DUP4 AND PUSH1 0x0 SWAP1 DUP2 MSTORE PUSH1 0x3 PUSH1 0x20 MSTORE PUSH1 0x40 SWAP1 KECCAK256 SLOAD PUSH1 0xFF AND JUMPDEST ISZERO PUSH2 0x1041 JUMPI POP PUSH1 0x0 PUSH2 0x456 JUMP JUMPDEST PUSH1 0x40 MLOAD PUSH4 0xB9209E33 PUSH1 0xE0 SHL DUP2 MSTORE PUSH1 0x1 PUSH1 0x1 PUSH1 0xA0 SHL SUB DUP6 DUP2 AND PUSH1 0x4 DUP4 ADD MSTORE PUSH32 0x0 AND SWAP1 PUSH4 0xB9209E33 SWAP1 PUSH1 0x24 ADD PUSH1 0x20 PUSH1 0x40 MLOAD DUP1 DUP4 SUB DUP2 DUP7 GAS STATICCALL ISZERO DUP1 ISZERO PUSH2 0x10A7 JUMPI RETURNDATASIZE PUSH1 0x0 DUP1 RETURNDATACOPY RETURNDATASIZE PUSH1 0x0 REVERT JUMPDEST POP POP POP POP PUSH1 0x40 MLOAD RETURNDATASIZE PUSH1 0x1F NOT PUSH1 0x1F DUP3 ADD AND DUP3 ADD DUP1 PUSH1 0x40 MSTORE POP DUP2 ADD SWAP1 PUSH2 0x10CB SWAP2 SWAP1 PUSH2 0x18C4 JUMP JUMPDEST ISZERO DUP1 PUSH2 0x115E JUMPI POP PUSH1 0x40 MLOAD PUSH4 0xB9209E33 PUSH1 0xE0 SHL DUP2 MSTORE PUSH1 0x1 PUSH1 0x1 PUSH1 0xA0 SHL SUB DUP5 DUP2 AND PUSH1 0x4 DUP4 ADD MSTORE PUSH32 0x0 AND SWAP1 PUSH4 0xB9209E33 SWAP1 PUSH1 0x24 ADD PUSH1 0x20 PUSH1 0x40 MLOAD DUP1 DUP4 SUB DUP2 DUP7 GAS STATICCALL ISZERO DUP1 ISZERO PUSH2 0x1138 JUMPI RETURNDATASIZE PUSH1 0x0 DUP1 RETURNDATACOPY RETURNDATASIZE PUSH1 0x0 REVERT JUMPDEST POP POP POP POP PUSH1 0x40 MLOAD RETURNDATASIZE PUSH1 0x1F NOT PUSH1 0x1F DUP3 ADD AND DUP3 ADD DUP1 PUSH1 0x40 MSTORE POP DUP2 ADD SWAP1 PUSH2 0x115C SWAP2 SWAP1 PUSH2 0x18C4 JUMP JUMPDEST ISZERO JUMPDEST ISZERO PUSH2 0x116B JUMPI POP PUSH1 0x0 PUSH2 0x456 JUMP JUMPDEST PUSH1 0x4 SLOAD PUSH1 0xFF AND ISZERO PUSH2 0x1301 JUMPI PUSH1 0x40 MLOAD PUSH4 0xB2C5AB7 PUSH1 0xE2 SHL DUP2 MSTORE PUSH1 0x1 PUSH1 0x1 PUSH1 0xA0 SHL SUB DUP6 DUP2 AND PUSH1 0x4 DUP4 ADD MSTORE PUSH1 0x0 SWAP2 PUSH32 0x0 SWAP1 SWAP2 AND SWAP1 PUSH4 0x2CB16ADC SWAP1 PUSH1 0x24 ADD PUSH1 0x0 PUSH1 0x40 MLOAD DUP1 DUP4 SUB DUP2 DUP7 GAS STATICCALL ISZERO DUP1 ISZERO PUSH2 0x11E1 JUMPI RETURNDATASIZE PUSH1 0x0 DUP1 RETURNDATACOPY RETURNDATASIZE PUSH1 0x0 REVERT JUMPDEST POP POP POP POP PUSH1 0x40 MLOAD RETURNDATASIZE PUSH1 0x0 DUP3 RETURNDATACOPY PUSH1 0x1F RETURNDATASIZE SWAP1 DUP2 ADD PUSH1 0x1F NOT AND DUP3 ADD PUSH1 0x40 MSTORE PUSH2 0x1209 SWAP2 SWAP1 DUP2 ADD SWAP1 PUSH2 0x1905 JUMP JUMPDEST PUSH1 0x40 MLOAD PUSH4 0xB2C5AB7 PUSH1 0xE2 SHL DUP2 MSTORE PUSH1 0x1 PUSH1 0x1 PUSH1 0xA0 SHL SUB DUP7 DUP2 AND PUSH1 0x4 DUP4 ADD MSTORE SWAP2 SWAP3 POP PUSH1 0x0 SWAP2 PUSH32 0x0 AND SWAP1 PUSH4 0x2CB16ADC SWAP1 PUSH1 0x24 ADD PUSH1 0x0 PUSH1 0x40 MLOAD DUP1 DUP4 SUB DUP2 DUP7 GAS STATICCALL ISZERO DUP1 ISZERO PUSH2 0x1275 JUMPI RETURNDATASIZE PUSH1 0x0 DUP1 RETURNDATACOPY RETURNDATASIZE PUSH1 0x0 REVERT JUMPDEST POP POP POP POP PUSH1 0x40 MLOAD RETURNDATASIZE PUSH1 0x0 DUP3 RETURNDATACOPY PUSH1 0x1F RETURNDATASIZE SWAP1 DUP2 ADD PUSH1 0x1F NOT AND DUP3 ADD PUSH1 0x40 MSTORE PUSH2 0x129D SWAP2 SWAP1 DUP2 ADD SWAP1 PUSH2 0x1905 JUMP JUMPDEST SWAP1 POP PUSH1 0x2 DUP3 PUSH1 0x40 MLOAD PUSH2 0x12AF SWAP2 SWAP1 PUSH2 0x197C JUMP JUMPDEST SWAP1 DUP2 MSTORE PUSH1 0x40 MLOAD SWAP1 DUP2 SWAP1 SUB PUSH1 0x20 ADD SWAP1 KECCAK256 SLOAD PUSH1 0xFF AND ISZERO DUP1 PUSH2 0x12EE JUMPI POP PUSH1 0x2 DUP2 PUSH1 0x40 MLOAD PUSH2 0x12D9 SWAP2 SWAP1 PUSH2 0x197C JUMP JUMPDEST SWAP1 DUP2 MSTORE PUSH1 0x40 MLOAD SWAP1 DUP2 SWAP1 SUB PUSH1 0x20 ADD SWAP1 KECCAK256 SLOAD PUSH1 0xFF AND ISZERO JUMPDEST ISZERO PUSH2 0x12FE JUMPI PUSH1 0x0 SWAP3 POP POP POP PUSH2 0x456 JUMP JUMPDEST POP POP JUMPDEST DUP2 ISZERO PUSH2 0x1370 JUMPI PUSH1 0x5 SLOAD DUP3 GT ISZERO PUSH2 0x1319 JUMPI POP PUSH1 0x0 PUSH2 0x456 JUMP JUMPDEST PUSH1 0x0 PUSH2 0x1328 PUSH3 0x15180 TIMESTAMP PUSH2 0x181F JUMP JUMPDEST PUSH1 0x6 SLOAD PUSH1 0x1 PUSH1 0x1 PUSH1 0xA0 SHL SUB DUP8 AND PUSH1 0x0 SWAP1 DUP2 MSTORE PUSH1 0x7 PUSH1 0x20 SWAP1 DUP2 MSTORE PUSH1 0x40 DUP1 DUP4 KECCAK256 DUP6 DUP5 MSTORE SWAP1 SWAP2 MSTORE SWAP1 KECCAK256 SLOAD SWAP2 SWAP3 POP SWAP1 PUSH2 0x135E SWAP1 DUP6 SWAP1 PUSH2 0x1841 JUMP JUMPDEST GT ISZERO PUSH2 0x136E JUMPI PUSH1 0x0 SWAP2 POP POP PUSH2 0x456 JUMP JUMPDEST POP JUMPDEST POP PUSH1 0x1 SWAP4 SWAP3 POP POP POP JUMP JUMPDEST PUSH1 0x0 SLOAD PUSH1 0x1 PUSH1 0x1 PUSH1 0xA0 SHL SUB AND CALLER EQ PUSH2 0x5F1 JUMPI PUSH1 0x40 MLOAD PUSH4 0x118CDAA7 PUSH1 0xE0 SHL DUP2 MSTORE CALLER PUSH1 0x4 DUP3 ADD MSTORE PUSH1 0x24 ADD PUSH2 0x4A8 JUMP JUMPDEST PUSH1 0x0 DUP1 SLOAD PUSH1 0x1 PUSH1 0x1 PUSH1 0xA0 SHL SUB DUP4 DUP2 AND PUSH1 0x1 PUSH1 0x1 PUSH1 0xA0 SHL SUB NOT DUP4 AND DUP2 OR DUP5 SSTORE PUSH1 0x40 MLOAD SWAP2 SWAP1 SWAP3 AND SWAP3 DUP4 SWAP2 PUSH32 0x8BE0079C531659141344CD1FD0A4F28419497F9722A3DAAFE3B4186F6B6457E0 SWAP2 SWAP1 LOG3 POP POP JUMP JUMPDEST DUP1 CALLDATALOAD PUSH1 0x1 PUSH1 0x1 PUSH1 0xA0 SHL SUB DUP2 AND DUP2 EQ PUSH2 0x140E JUMPI PUSH1 0x0 DUP1 REVERT JUMPDEST SWAP2 SWAP1 POP JUMP JUMPDEST PUSH1 0x0 DUP1 PUSH1 0x40 DUP4 DUP6 SUB SLT ISZERO PUSH2 0x1426 JUMPI PUSH1 0x0 DUP1 REVERT JUMPDEST PUSH2 0x142F DUP4 PUSH2 0x13F7 JUMP JUMPDEST SWAP5 PUSH1 0x20 SWAP4 SWAP1 SWAP4 ADD CALLDATALOAD SWAP4 POP POP POP JUMP JUMPDEST PUSH1 0x0 DUP1 PUSH1 0x0 PUSH1 0x60 DUP5 DUP7 SUB SLT ISZERO PUSH2 0x1452 JUMPI PUSH1 0x0 DUP1 REVERT JUMPDEST PUSH2 0x145B DUP5 PUSH2 0x13F7 JUMP JUMPDEST SWAP3 POP PUSH2 0x1469 PUSH1 0x20 DUP6 ADD PUSH2 0x13F7 JUMP JUMPDEST SWAP3 SWAP6 SWAP3 SWAP5 POP POP POP PUSH1 0x40 SWAP2 SWAP1 SWAP2 ADD CALLDATALOAD SWAP1 JUMP JUMPDEST PUSH1 0x0 DUP1 DUP4 PUSH1 0x1F DUP5 ADD SLT PUSH2 0x148C JUMPI PUSH1 0x0 DUP1 REVERT JUMPDEST POP DUP2 CALLDATALOAD PUSH8 0xFFFFFFFFFFFFFFFF DUP2 GT ISZERO PUSH2 0x14A4 JUMPI PUSH1 0x0 DUP1 REVERT JUMPDEST PUSH1 0x20 DUP4 ADD SWAP2 POP DUP4 PUSH1 0x20 DUP3 DUP6 ADD ADD GT ISZERO PUSH2 0x14BC JUMPI PUSH1 0x0 DUP1 REVERT JUMPDEST SWAP3 POP SWAP3 SWAP1 POP JUMP JUMPDEST DUP1 ISZERO ISZERO DUP2 EQ PUSH2 0xFB6 JUMPI PUSH1 0x0 DUP1 REVERT JUMPDEST PUSH1 0x0 DUP1 PUSH1 0x0 PUSH1 0x40 DUP5 DUP7 SUB SLT ISZERO PUSH2 0x14E6 JUMPI PUSH1 0x0 DUP1 REVERT JUMPDEST DUP4 CALLDATALOAD PUSH8 0xFFFFFFFFFFFFFFFF DUP2 GT ISZERO PUSH2 0x14FD JUMPI PUSH1 0x0 DUP1 REVERT JUMPDEST PUSH2 0x1509 DUP7 DUP3 DUP8 ADD PUSH2 0x147A JUMP JUMPDEST SWAP1 SWAP5 POP SWAP3 POP POP PUSH1 0x20 DUP5 ADD CALLDATALOAD PUSH2 0x151D DUP2 PUSH2 0x14C3 JUMP JUMPDEST DUP1 SWAP2 POP POP SWAP3 POP SWAP3 POP SWAP3 JUMP JUMPDEST PUSH1 0x0 PUSH1 0x20 DUP3 DUP5 SUB SLT ISZERO PUSH2 0x153A JUMPI PUSH1 0x0 DUP1 REVERT JUMPDEST PUSH2 0x456 DUP3 PUSH2 0x13F7 JUMP JUMPDEST PUSH1 0x0 PUSH1 0x20 DUP3 DUP5 SUB SLT ISZERO PUSH2 0x1555 JUMPI PUSH1 0x0 DUP1 REVERT JUMPDEST DUP2 CALLDATALOAD PUSH2 0x456 DUP2 PUSH2 0x14C3 JUMP JUMPDEST PUSH1 0x0 PUSH1 0x20 DUP3 DUP5 SUB SLT ISZERO PUSH2 0x1572 JUMPI PUSH1 0x0 DUP1 REVERT JUMPDEST POP CALLDATALOAD SWAP2 SWAP1 POP JUMP JUMPDEST PUSH1 0x0 DUP1 PUSH1 0x40 DUP4 DUP6 SUB SLT ISZERO PUSH2 0x158C JUMPI PUSH1 0x0 DUP1 REVERT JUMPDEST PUSH2 0x1595 DUP4 PUSH2 0x13F7 JUMP JUMPDEST SWAP2 POP PUSH2 0x15A3 PUSH1 0x20 DUP5 ADD PUSH2 0x13F7 JUMP JUMPDEST SWAP1 POP SWAP3 POP SWAP3 SWAP1 POP JUMP JUMPDEST PUSH1 0x0 DUP1 DUP4 PUSH1 0x1F DUP5 ADD SLT PUSH2 0x15BE JUMPI PUSH1 0x0 DUP1 REVERT JUMPDEST POP DUP2 CALLDATALOAD PUSH8 0xFFFFFFFFFFFFFFFF DUP2 GT ISZERO PUSH2 0x15D6 JUMPI PUSH1 0x0 DUP1 REVERT JUMPDEST PUSH1 0x20 DUP4 ADD SWAP2 POP DUP4 PUSH1 0x20 DUP3 PUSH1 0x5 SHL DUP6 ADD ADD GT ISZERO PUSH2 0x14BC JUMPI PUSH1 0x0 DUP1 REVERT JUMPDEST PUSH1 0x0 DUP1 PUSH1 0x0 DUP1 PUSH1 0x40 DUP6 DUP8 SUB SLT ISZERO PUSH2 0x1607 JUMPI PUSH1 0x0 DUP1 REVERT JUMPDEST DUP5 CALLDATALOAD PUSH8 0xFFFFFFFFFFFFFFFF DUP2 GT ISZERO PUSH2 0x161E JUMPI PUSH1 0x0 DUP1 REVERT JUMPDEST PUSH2 0x162A DUP8 DUP3 DUP9 ADD PUSH2 0x15AC JUMP JUMPDEST SWAP1 SWAP6 POP SWAP4 POP POP PUSH1 0x20 DUP6 ADD CALLDATALOAD PUSH8 0xFFFFFFFFFFFFFFFF DUP2 GT ISZERO PUSH2 0x164A JUMPI PUSH1 0x0 DUP1 REVERT JUMPDEST PUSH2 0x1656 DUP8 DUP3 DUP9 ADD PUSH2 0x15AC JUMP JUMPDEST SWAP6 SWAP9 SWAP5 SWAP8 POP SWAP6 POP POP POP POP JUMP JUMPDEST PUSH1 0x0 DUP1 PUSH1 0x40 DUP4 DUP6 SUB SLT ISZERO PUSH2 0x1675 JUMPI PUSH1 0x0 DUP1 REVERT JUMPDEST PUSH2 0x167E DUP4 PUSH2 0x13F7 JUMP JUMPDEST SWAP2 POP PUSH1 0x20 DUP4 ADD CALLDATALOAD PUSH2 0x168E DUP2 PUSH2 0x14C3 JUMP JUMPDEST DUP1 SWAP2 POP POP SWAP3 POP SWAP3 SWAP1 POP JUMP JUMPDEST PUSH1 0x0 DUP1 PUSH1 0x20 DUP4 DUP6 SUB SLT ISZERO PUSH2 0x16AC JUMPI PUSH1 0x0 DUP1 REVERT JUMPDEST DUP3 CALLDATALOAD PUSH8 0xFFFFFFFFFFFFFFFF DUP2 GT ISZERO PUSH2 0x16C3 JUMPI PUSH1 0x0 DUP1 REVERT JUMPDEST PUSH2 0x16CF DUP6 DUP3 DUP7 ADD PUSH2 0x147A JUMP JUMPDEST SWAP1 SWAP7 SWAP1 SWAP6 POP SWAP4 POP POP POP POP JUMP JUMPDEST PUSH4 0x4E487B71 PUSH1 0xE0 SHL PUSH1 0x0 MSTORE PUSH1 0x41 PUSH1 0x4 MSTORE PUSH1 0x24 PUSH1 0x0 REVERT JUMPDEST PUSH1 0x40 MLOAD PUSH1 0x1F DUP3 ADD PUSH1 0x1F NOT AND DUP2 ADD PUSH8 0xFFFFFFFFFFFFFFFF DUP2 GT DUP3 DUP3 LT OR ISZERO PUSH2 0x171A JUMPI PUSH2 0x171A PUSH2 0x16DB JUMP JUMPDEST PUSH1 0x40 MSTORE SWAP2 SWAP1 POP JUMP JUMPDEST PUSH1 0x0 PUSH8 0xFFFFFFFFFFFFFFFF DUP3 GT ISZERO PUSH2 0x173C JUMPI PUSH2 0x173C PUSH2 0x16DB JUMP JUMPDEST POP PUSH1 0x1F ADD PUSH1 0x1F NOT AND PUSH1 0x20 ADD SWAP1 JUMP JUMPDEST PUSH1 0x0 PUSH1 0x20 DUP3 DUP5 SUB SLT ISZERO PUSH2 0x175C JUMPI PUSH1 0x0 DUP1 REVERT JUMPDEST DUP2 CALLDATALOAD PUSH8 0xFFFFFFFFFFFFFFFF DUP2 GT ISZERO PUSH2 0x1773 JUMPI PUSH1 0x0 DUP1 REVERT JUMPDEST DUP3 ADD PUSH1 0x1F DUP2 ADD DUP5 SGT PUSH2 0x1784 JUMPI PUSH1 0x0 DUP1 REVERT JUMPDEST DUP1 CALLDATALOAD PUSH2 0x1797 PUSH2 0x1792 DUP3 PUSH2 0x1722 JUMP JUMPDEST PUSH2 0x16F1 JUMP JUMPDEST DUP2 DUP2 MSTORE DUP6 PUSH1 0x20 DUP4 DUP6 ADD ADD GT ISZERO PUSH2 0x17AC JUMPI PUSH1 0x0 DUP1 REVERT JUMPDEST DUP2 PUSH1 0x20 DUP5 ADD PUSH1 0x20 DUP4 ADD CALLDATACOPY PUSH1 0x0 SWAP2 DUP2 ADD PUSH1 0x20 ADD SWAP2 SWAP1 SWAP2 MSTORE SWAP5 SWAP4 POP POP POP POP JUMP JUMPDEST DUP2 DUP4 DUP3 CALLDATACOPY PUSH1 0x0 SWAP2 ADD SWAP1 DUP2 MSTORE SWAP2 SWAP1 POP JUMP JUMPDEST PUSH1 0x20 DUP2 MSTORE DUP2 PUSH1 0x20 DUP3 ADD MSTORE DUP2 DUP4 PUSH1 0x40 DUP4 ADD CALLDATACOPY PUSH1 0x0 DUP2 DUP4 ADD PUSH1 0x40 SWAP1 DUP2 ADD SWAP2 SWAP1 SWAP2 MSTORE PUSH1 0x1F SWAP1 SWAP3 ADD PUSH1 0x1F NOT AND ADD ADD SWAP2 SWAP1 POP JUMP JUMPDEST PUSH4 0x4E487B71 PUSH1 0xE0 SHL PUSH1 0x0 MSTORE PUSH1 0x11 PUSH1 0x4 MSTORE PUSH1 0x24 PUSH1 0x0 REVERT JUMPDEST PUSH1 0x0 DUP3 PUSH2 0x183C JUMPI PUSH4 0x4E487B71 PUSH1 0xE0 SHL PUSH1 0x0 MSTORE PUSH1 0x12 PUSH1 0x4 MSTORE PUSH1 0x24 PUSH1 0x0 REVERT JUMPDEST POP DIV SWAP1 JUMP JUMPDEST DUP1 DUP3 ADD DUP1 DUP3 GT ISZERO PUSH2 0x440 JUMPI PUSH2 0x440 PUSH2 0x1809 JUMP JUMPDEST PUSH4 0x4E487B71 PUSH1 0xE0 SHL PUSH1 0x0 MSTORE PUSH1 0x32 PUSH1 0x4 MSTORE PUSH1 0x24 PUSH1 0x0 REVERT JUMPDEST PUSH1 0x0 DUP1 DUP4 CALLDATALOAD PUSH1 0x1E NOT DUP5 CALLDATASIZE SUB ADD DUP2 SLT PUSH2 0x1881 JUMPI PUSH1 0x0 DUP1 REVERT JUMPDEST DUP4 ADD DUP1 CALLDATALOAD SWAP2 POP PUSH8 0xFFFFFFFFFFFFFFFF DUP3 GT ISZERO PUSH2 0x189C JUMPI PUSH1 0x0 DUP1 REVERT JUMPDEST PUSH1 0x20 ADD SWAP2 POP CALLDATASIZE DUP2 SWAP1 SUB DUP3 SGT ISZERO PUSH2 0x14BC JUMPI PUSH1 0x0 DUP1 REVERT JUMPDEST DUP2 DUP2 SUB DUP2 DUP2 GT ISZERO PUSH2 0x440 JUMPI PUSH2 0x440 PUSH2 0x1809 JUMP JUMPDEST PUSH1 0x0 PUSH1 0x20 DUP3 DUP5 SUB SLT ISZERO PUSH2 0x18D6 JUMPI PUSH1 0x0 DUP1 REVERT JUMPDEST DUP2 MLOAD PUSH2 0x456 DUP2 PUSH2 0x14C3 JUMP JUMPDEST PUSH1 0x0 JUMPDEST DUP4 DUP2 LT ISZERO PUSH2 0x18FC JUMPI DUP2 DUP2 ADD MLOAD DUP4 DUP3 ADD MSTORE PUSH1 0x20 ADD PUSH2 0x18E4 JUMP JUMPDEST POP POP PUSH1 0x0 SWAP2 ADD MSTORE JUMP JUMPDEST PUSH1 0x0 PUSH1 0x20 DUP3 DUP5 SUB SLT ISZERO PUSH2 0x1917 JUMPI PUSH1 0x0 DUP1 REVERT JUMPDEST DUP2 MLOAD PUSH8 0xFFFFFFFFFFFFFFFF DUP2 GT ISZERO PUSH2 0x192E JUMPI PUSH1 0x0 DUP1 REVERT JUMPDEST DUP3 ADD PUSH1 0x1F DUP2 ADD DUP5 SGT PUSH2 0x193F JUMPI PUSH1 0x0 DUP1 REVERT JUMPDEST DUP1 MLOAD PUSH2 0x194D PUSH2 0x1792 DUP3 PUSH2 0x1722 JUMP JUMPDEST DUP2 DUP2 MSTORE DUP6 PUSH1 0x20 DUP4 DUP6 ADD ADD GT ISZERO PUSH2 0x1962 JUMPI PUSH1 0x0 DUP1 REVERT JUMPDEST PUSH2 0x1973 DUP3 PUSH1 0x20 DUP4 ADD PUSH1 0x20 DUP7 ADD PUSH2 0x18E1 JUMP JUMPDEST SWAP6 SWAP5 POP POP POP POP POP JUMP JUMPDEST PUSH1 0x0 DUP3 MLOAD PUSH2 0x198E DUP2 DUP5 PUSH1 0x20 DUP8 ADD PUSH2 0x18E1 JUMP JUMPDEST SWAP2 SWAP1 SWAP2 ADD SWAP3 SWAP2 POP POP JUMP INVALID LOG2 PUSH5 0x6970667358 0x22 SLT KECCAK256 0xB9 BLOBBASEFEE 0xDD 0xA5 0xBD PUSH7 0xB061A5C1FA8E7F EXTCODECOPY MLOAD PUSH13 0x5F7E33F3FAE30DE29DBD6727B3 SWAP6 ISZERO EXTCODECOPY PUSH5 0x736F6C6343 STOP ADDMOD SHR STOP CALLER "},"methodIdentifiers":{"allowedCountries(string)":"e89c0cae","batchSetAddressesBlacklisted(address[],bool[])":"a31bcff4","batchSetCountriesAllowed(string[],bool[])":"e5f81ba8","blacklistEnabled()":"bffb691d","blacklistedAddresses(address)":"d5749d42","countryRestrictionsEnabled()":"0d8c8b81","dailyTransferLimit()":"f714af6f","dailyTransfers(address,uint256)":"8752183f","getCurrentDayTransferAmount(address)":"5b1d60ec","getDailyTransferAmount(address,uint256)":"3c2d4370","getRemainingDailyLimit(address)":"ec37d259","isAddressBlacklisted(address)":"90683e8c","isCountryAllowed(string)":"c7984196","isTransferAllowed(address,address)":"97e2b9af","isTransferAllowedWithAmount(address,address,uint256)":"54769c7c","maxTransferAmount()":"a9e75723","owner()":"8da5cb5b","recordTransfer(address,uint256)":"73ac83ef","registry()":"7b103999","renounceOwnership()":"715018a6","setAddressBlacklisted(address,bool)":"ae6d125d","setCountryAllowed(string,bool)":"5991d72d","setDailyTransferLimit(uint256)":"cdfca2d1","setMaxTransferAmount(uint256)":"8bf55409","toggleBlacklist(bool)":"7572a9db","toggleCountryRestrictions(bool)":"d842542d","transferOwnership(address)":"f2fde38b"}}}}}