{
  "_format": "hh-sol-artifact-1",
  "contractName": "IdentityRegistry",
  "sourceName": "contracts/IdentityRegistry.sol",
  "abi": [
    {
      "inputs": [],
      "stateMutability": "nonpayable",
      "type": "constructor"
    },
    {
      "inputs": [
        {
          "internalType": "address",
          "name": "owner",
          "type": "address"
        }
      ],
      "name": "OwnableInvalidOwner",
      "type": "error"
    },
    {
      "inputs": [
        {
          "internalType": "address",
          "name": "account",
          "type": "address"
        }
      ],
      "name": "OwnableUnauthorizedAccount",
      "type": "error"
    },
    {
      "inputs": [],
      "name": "ReentrancyGuardReentrantCall",
      "type": "error"
    },
    {
      "anonymous": false,
      "inputs": [
        {
          "indexed": true,
          "internalType": "address",
          "name": "user",
          "type": "address"
        },
        {
          "indexed": false,
          "internalType": "string",
          "name": "country",
          "type": "string"
        },
        {
          "indexed": false,
          "internalType": "uint256",
          "name": "timestamp",
          "type": "uint256"
        }
      ],
      "name": "InvestorVerified",
      "type": "event"
    },
    {
      "anonymous": false,
      "inputs": [
        {
          "indexed": true,
          "internalType": "address",
          "name": "previousOwner",
          "type": "address"
        },
        {
          "indexed": true,
          "internalType": "address",
          "name": "newOwner",
          "type": "address"
        }
      ],
      "name": "OwnershipTransferred",
      "type": "event"
    },
    {
      "anonymous": false,
      "inputs": [
        {
          "indexed": true,
          "internalType": "address",
          "name": "user",
          "type": "address"
        },
        {
          "indexed": false,
          "internalType": "string",
          "name": "country",
          "type": "string"
        }
      ],
      "name": "VerificationRevoked",
      "type": "event"
    },
    {
      "inputs": [
        {
          "internalType": "address[]",
          "name": "users",
          "type": "address[]"
        },
        {
          "internalType": "string[]",
          "name": "countries",
          "type": "string[]"
        }
      ],
      "name": "batchVerifyInvestors",
      "outputs": [],
      "stateMutability": "nonpayable",
      "type": "function"
    },
    {
      "inputs": [
        {
          "internalType": "address",
          "name": "user",
          "type": "address"
        }
      ],
      "name": "country",
      "outputs": [
        {
          "internalType": "string",
          "name": "",
          "type": "string"
        }
      ],
      "stateMutability": "view",
      "type": "function"
    },
    {
      "inputs": [
        {
          "internalType": "string",
          "name": "",
          "type": "string"
        }
      ],
      "name": "countryInvestorCount",
      "outputs": [
        {
          "internalType": "uint256",
          "name": "",
          "type": "uint256"
        }
      ],
      "stateMutability": "view",
      "type": "function"
    },
    {
      "inputs": [
        {
          "internalType": "string",
          "name": "userCountry",
          "type": "string"
        }
      ],
      "name": "getCountryInvestorCount",
      "outputs": [
        {
          "internalType": "uint256",
          "name": "",
          "type": "uint256"
        }
      ],
      "stateMutability": "view",
      "type": "function"
    },
    {
      "inputs": [
        {
          "internalType": "address",
          "name": "user",
          "type": "address"
        }
      ],
      "name": "getInvestorCountry",
      "outputs": [
        {
          "internalType": "string",
          "name": "",
          "type": "string"
        }
      ],
      "stateMutability": "view",
      "type": "function"
    },
    {
      "inputs": [
        {
          "internalType": "address",
          "name": "user",
          "type": "address"
        }
      ],
      "name": "getInvestorData",
      "outputs": [
        {
          "internalType": "bool",
          "name": "verified",
          "type": "bool"
        },
        {
          "internalType": "string",
          "name": "userCountry",
          "type": "string"
        },
        {
          "internalType": "uint256",
          "name": "timestamp",
          "type": "uint256"
        }
      ],
      "stateMutability": "view",
      "type": "function"
    },
    {
      "inputs": [
        {
          "internalType": "address",
          "name": "",
          "type": "address"
        }
      ],
      "name": "investors",
      "outputs": [
        {
          "internalType": "bool",
          "name": "isVerified",
          "type": "bool"
        },
        {
          "internalType": "string",
          "name": "country",
          "type": "string"
        },
        {
          "internalType": "uint256",
          "name": "verificationTimestamp",
          "type": "uint256"
        }
      ],
      "stateMutability": "view",
      "type": "function"
    },
    {
      "inputs": [
        {
          "internalType": "address",
          "name": "user",
          "type": "address"
        }
      ],
      "name": "isVerified",
      "outputs": [
        {
          "internalType": "bool",
          "name": "",
          "type": "bool"
        }
      ],
      "stateMutability": "view",
      "type": "function"
    },
    {
      "inputs": [],
      "name": "owner",
      "outputs": [
        {
          "internalType": "address",
          "name": "",
          "type": "address"
        }
      ],
      "stateMutability": "view",
      "type": "function"
    },
    {
      "inputs": [],
      "name": "renounceOwnership",
      "outputs": [],
      "stateMutability": "nonpayable",
      "type": "function"
    },
    {
      "inputs": [
        {
          "internalType": "address",
          "name": "user",
          "type": "address"
        }
      ],
      "name": "revokeVerification",
      "outputs": [],
      "stateMutability": "nonpayable",
      "type": "function"
    },
    {
      "inputs": [],
      "name": "totalVerifiedInvestors",
      "outputs": [
        {
          "internalType": "uint256",
          "name": "",
          "type": "uint256"
        }
      ],
      "stateMutability": "view",
      "type": "function"
    },
    {
      "inputs": [
        {
          "internalType": "address",
          "name": "newOwner",
          "type": "address"
        }
      ],
      "name": "transferOwnership",
      "outputs": [],
      "stateMutability": "nonpayable",
      "type": "function"
    },
    {
      "inputs": [
        {
          "internalType": "address",
          "name": "user",
          "type": "address"
        },
        {
          "internalType": "string",
          "name": "userCountry",
          "type": "string"
        }
      ],
      "name": "verifyInvestor",
      "outputs": [],
      "stateMutability": "nonpayable",
      "type": "function"
    }
  ],
  "bytecode": "0x6080604052348015600f57600080fd5b503380603557604051631e4fbdf760e01b81526000600482015260240160405180910390fd5b603c816045565b50600180556095565b600080546001600160a01b038381166001600160a01b0319831681178455604051919092169283917f8be0079c531659141344cd1fd0a4f28419497f9722a3daafe3b4186f6b6457e09190a35050565b6116f1806100a46000396000f3fe608060405234801561001057600080fd5b50600436106100ea5760003560e01c806373fa4e201161008c578063b9209e3311610066578063b9209e33146101f7578063e998d2fa14610233578063f22bf8d014610246578063f2fde38b1461024f57600080fd5b806373fa4e20146101b65780637f326442146101c95780638da5cb5b146101dc57600080fd5b80635883585b116100c85780635883585b146101405780636b451008146101615780636f7bc9be1461018c578063715018a6146101ae57600080fd5b806313b1d144146100ef5780632cb16adc146101185780634f45f4421461012b575b600080fd5b6101026100fd36600461112b565b610262565b60405161010f919061119d565b60405180910390f35b61010261012636600461112b565b610371565b61013e6101393660046111f9565b61039b565b005b61015361014e36600461124c565b610714565b60405190815260200161010f565b61015361016f3660046112a4565b805160208183018101805160038252928201919093012091525481565b61019f61019a36600461112b565b61073f565b60405161010f9392919061135d565b61013e6107ee565b61013e6101c43660046113cd565b610802565b61019f6101d736600461112b565b610cb6565b6000546040516001600160a01b03909116815260200161010f565b61022361020536600461112b565b6001600160a01b031660009081526002602052604090205460ff1690565b604051901515815260200161010f565b61013e61024136600461112b565b610da6565b61015360045481565b61013e61025d36600461112b565b610fdf565b6001600160a01b03811660009081526002602052604090205460609060ff166102c65760405162461bcd60e51b8152602060048201526011602482015270155cd95c881b9bdd081d995c9a599a5959607a1b60448201526064015b60405180910390fd5b6001600160a01b038216600090815260026020526040902060010180546102ec9061143e565b80601f01602080910402602001604051908101604052809291908181526020018280546103189061143e565b80156103655780601f1061033a57610100808354040283529160200191610365565b820191906000526020600020905b81548152906001019060200180831161034857829003601f168201915b50505050509050919050565b6001600160a01b03811660009081526002602052604090206001018054606091906102ec9061143e565b6103a361101a565b6103ab611047565b6001600160a01b0383166103d15760405162461bcd60e51b81526004016102bd90611478565b806104185760405162461bcd60e51b8152602060048201526017602482015276436f756e7472792063616e6e6f7420626520656d70747960481b60448201526064016102bd565b60328111156104615760405162461bcd60e51b8152602060048201526015602482015274436f756e747279206e616d6520746f6f206c6f6e6760581b60448201526064016102bd565b6001600160a01b03831660009081526002602052604090205460ff166104cf5760048054906000610491836114bc565b9190505550600382826040516104a89291906114d5565b90815260405190819003602001902080549060006104c5836114bc565b919050555061062b565b6001600160a01b038316600090815260026020526040812060010180546104f59061143e565b80601f01602080910402602001604051908101604052809291908181526020018280546105219061143e565b801561056e5780601f106105435761010080835404028352916020019161056e565b820191906000526020600020905b81548152906001019060200180831161055157829003601f168201915b5050505050905082826040516105859291906114d5565b60405180910390208180519060200120146106295760006003826040516105ac91906114e5565b90815260200160405180910390205411156105f4576003816040516105d191906114e5565b90815260405190819003602001902080549060006105ee83611501565b91905055505b600383836040516106069291906114d5565b9081526040519081900360200190208054906000610623836114bc565b91905055505b505b604051806060016040528060011515815260200183838080601f0160208091040260200160405190810160405280939291908181526020018383808284376000920182905250938552505042602093840152506001600160a01b038616815260028252604090208251815460ff19169015151781559082015160018201906106b39082611566565b5060408201518160020155905050826001600160a01b03167f4686dacf6f06997cf8ef44605d7a2e1452544023172dc5cdcb632cb22fa4fabb8383426040516106fe93929190611625565b60405180910390a261070f60018055565b505050565b6000600383836040516107289291906114d5565b908152602001604051809103902054905092915050565b6002602052600090815260409020805460018201805460ff90921692916107659061143e565b80601f01602080910402602001604051908101604052809291908181526020018280546107919061143e565b80156107de5780601f106107b3576101008083540402835291602001916107de565b820191906000526020600020905b8154815290600101906020018083116107c157829003601f168201915b5050505050908060020154905083565b6107f661101a565b6108006000611071565b565b61080a61101a565b610812611047565b82811461085a5760405162461bcd60e51b8152602060048201526016602482015275082e4e4c2f2e640d8cadccee8d040dad2e6dac2e8c6d60531b60448201526064016102bd565b826108965760405162461bcd60e51b815260206004820152600c60248201526b456d7074792061727261797360a01b60448201526064016102bd565b60648311156108de5760405162461bcd60e51b815260206004820152601460248201527342617463682073697a6520746f6f206c6172676560601b60448201526064016102bd565b60005b83811015610ca65760008585838181106108fd576108fd61165e565b9050602002016020810190610912919061112b565b90503660008585858181106109295761092961165e565b905060200281019061093b9190611674565b90925090506001600160a01b0383166109665760405162461bcd60e51b81526004016102bd90611478565b806109ad5760405162461bcd60e51b8152602060048201526017602482015276436f756e7472792063616e6e6f7420626520656d70747960481b60448201526064016102bd565b60328111156109f65760405162461bcd60e51b8152602060048201526015602482015274436f756e747279206e616d6520746f6f206c6f6e6760581b60448201526064016102bd565b6001600160a01b03831660009081526002602052604090205460ff16610a645760048054906000610a26836114bc565b919050555060038282604051610a3d9291906114d5565b9081526040519081900360200190208054906000610a5a836114bc565b9190505550610bc0565b6001600160a01b03831660009081526002602052604081206001018054610a8a9061143e565b80601f0160208091040260200160405190810160405280929190818152602001828054610ab69061143e565b8015610b035780601f10610ad857610100808354040283529160200191610b03565b820191906000526020600020905b815481529060010190602001808311610ae657829003601f168201915b505050505090508282604051610b1a9291906114d5565b6040518091039020818051906020012014610bbe576000600382604051610b4191906114e5565b9081526020016040518091039020541115610b8957600381604051610b6691906114e5565b9081526040519081900360200190208054906000610b8383611501565b91905055505b60038383604051610b9b9291906114d5565b9081526040519081900360200190208054906000610bb8836114bc565b91905055505b505b604051806060016040528060011515815260200183838080601f0160208091040260200160405190810160405280939291908181526020018383808284376000920182905250938552505042602093840152506001600160a01b038616815260028252604090208251815460ff1916901515178155908201516001820190610c489082611566565b5060408201518160020155905050826001600160a01b03167f4686dacf6f06997cf8ef44605d7a2e1452544023172dc5cdcb632cb22fa4fabb838342604051610c9393929190611625565b60405180910390a25050506001016108e1565b50610cb060018055565b50505050565b6001600160a01b038116600090815260026020908152604080832081516060818101909352815460ff1615158152600182018054939486948594929184019190610cff9061143e565b80601f0160208091040260200160405190810160405280929190818152602001828054610d2b9061143e565b8015610d785780601f10610d4d57610100808354040283529160200191610d78565b820191906000526020600020905b815481529060010190602001808311610d5b57829003601f168201915b5050509183525050600291909101546020918201528151908201516040909201519097919650945092505050565b610dae61101a565b610db6611047565b6001600160a01b038116610ddc5760405162461bcd60e51b81526004016102bd90611478565b6001600160a01b03811660009081526002602052604090205460ff16610e385760405162461bcd60e51b8152602060048201526011602482015270155cd95c881b9bdd081d995c9a599a5959607a1b60448201526064016102bd565b6001600160a01b03811660009081526002602052604081206001018054610e5e9061143e565b80601f0160208091040260200160405190810160405280929190818152602001828054610e8a9061143e565b8015610ed75780601f10610eac57610100808354040283529160200191610ed7565b820191906000526020600020905b815481529060010190602001808311610eba57829003601f168201915b5050505050905060006004541115610eff5760048054906000610ef983611501565b91905055505b6000600382604051610f1191906114e5565b9081526020016040518091039020541115610f5957600381604051610f3691906114e5565b9081526040519081900360200190208054906000610f5383611501565b91905055505b6001600160a01b0382166000908152600260205260408120805460ff1916815590610f8760018301826110c1565b60028201600090555050816001600160a01b03167f3b56c041a4c2e60799edf637b19f958011d99c582ce76af1d7de3b1c73436f8582604051610fca919061119d565b60405180910390a250610fdc60018055565b50565b610fe761101a565b6001600160a01b03811661101157604051631e4fbdf760e01b8152600060048201526024016102bd565b610fdc81611071565b6000546001600160a01b031633146108005760405163118cdaa760e01b81523360048201526024016102bd565b60026001540361106a57604051633ee5aeb560e01b815260040160405180910390fd5b6002600155565b600080546001600160a01b038381166001600160a01b0319831681178455604051919092169283917f8be0079c531659141344cd1fd0a4f28419497f9722a3daafe3b4186f6b6457e09190a35050565b5080546110cd9061143e565b6000825580601f106110dd575050565b601f016020900490600052602060002090810190610fdc91905b8082111561110b57600081556001016110f7565b5090565b80356001600160a01b038116811461112657600080fd5b919050565b60006020828403121561113d57600080fd5b6111468261110f565b9392505050565b60005b83811015611168578181015183820152602001611150565b50506000910152565b6000815180845261118981602086016020860161114d565b601f01601f19169290920160200192915050565b6020815260006111466020830184611171565b60008083601f8401126111c257600080fd5b50813567ffffffffffffffff8111156111da57600080fd5b6020830191508360208285010111156111f257600080fd5b9250929050565b60008060006040848603121561120e57600080fd5b6112178461110f565b9250602084013567ffffffffffffffff81111561123357600080fd5b61123f868287016111b0565b9497909650939450505050565b6000806020838503121561125f57600080fd5b823567ffffffffffffffff81111561127657600080fd5b611282858286016111b0565b90969095509350505050565b634e487b7160e01b600052604160045260246000fd5b6000602082840312156112b657600080fd5b813567ffffffffffffffff8111156112cd57600080fd5b8201601f810184136112de57600080fd5b803567ffffffffffffffff8111156112f8576112f861128e565b604051601f8201601f19908116603f0116810167ffffffffffffffff811182821017156113275761132761128e565b60405281815282820160200186101561133f57600080fd5b81602084016020830137600091810160200191909152949350505050565b83151581526060602082015260006113786060830185611171565b9050826040830152949350505050565b60008083601f84011261139a57600080fd5b50813567ffffffffffffffff8111156113b257600080fd5b6020830191508360208260051b85010111156111f257600080fd5b600080600080604085870312156113e357600080fd5b843567ffffffffffffffff8111156113fa57600080fd5b61140687828801611388565b909550935050602085013567ffffffffffffffff81111561142657600080fd5b61143287828801611388565b95989497509550505050565b600181811c9082168061145257607f821691505b60208210810361147257634e487b7160e01b600052602260045260246000fd5b50919050565b602080825260149082015273496e76616c69642075736572206164647265737360601b604082015260600190565b634e487b7160e01b600052601160045260246000fd5b6000600182016114ce576114ce6114a6565b5060010190565b8183823760009101908152919050565b600082516114f781846020870161114d565b9190910192915050565b600081611510576115106114a6565b506000190190565b601f82111561070f57806000526020600020601f840160051c8101602085101561153f5750805b601f840160051c820191505b8181101561155f576000815560010161154b565b5050505050565b815167ffffffffffffffff8111156115805761158061128e565b6115948161158e845461143e565b84611518565b6020601f8211600181146115c857600083156115b05750848201515b600019600385901b1c1916600184901b17845561155f565b600084815260208120601f198516915b828110156115f857878501518255602094850194600190920191016115d8565b50848210156116165786840151600019600387901b60f8161c191681555b50505050600190811b01905550565b604081528260408201528284606083013760006060848301015260006060601f19601f8601168301019050826020830152949350505050565b634e487b7160e01b600052603260045260246000fd5b6000808335601e1984360301811261168b57600080fd5b83018035915067ffffffffffffffff8211156116a657600080fd5b6020019150368190038213156111f257600080fdfea2646970667358221220d0a378556dc84c0ee82bbd7051d79378d9f233439f9e70dad65054161f453b6464736f6c634300081c0033",
  "linkReferences": {},
  "deployedLinkReferences": {}
}