{
  "_format": "hh-sol-artifact-1",
  "contractName": "RWAAssetToken",
  "sourceName": "contracts/RWAAssetToken.sol",
  "abi": [
    {
      "inputs": [
        {
          "internalType": "address",
          "name": "_compliance",
          "type": "address"
        },
        {
          "internalType": "string",
          "name": "name",
          "type": "string"
        },
        {
          "internalType": "string",
          "name": "symbol",
          "type": "string"
        }
      ],
      "stateMutability": "nonpayable",
      "type": "constructor"
    },
    {
      "inputs": [],
      "name": "AccessControlBadConfirmation",
      "type": "error"
    },
    {
      "inputs": [
        {
          "internalType": "address",
          "name": "account",
          "type": "address"
        },
        {
          "internalType": "bytes32",
          "name": "neededRole",
          "type": "bytes32"
        }
      ],
      "name": "AccessControlUnauthorizedAccount",
      "type": "error"
    },
    {
      "inputs": [
        {
          "internalType": "address",
          "name": "spender",
          "type": "address"
        },
        {
          "internalType": "uint256",
          "name": "allowance",
          "type": "uint256"
        },
        {
          "internalType": "uint256",
          "name": "needed",
          "type": "uint256"
        }
      ],
      "name": "ERC20InsufficientAllowance",
      "type": "error"
    },
    {
      "inputs": [
        {
          "internalType": "address",
          "name": "sender",
          "type": "address"
        },
        {
          "internalType": "uint256",
          "name": "balance",
          "type": "uint256"
        },
        {
          "internalType": "uint256",
          "name": "needed",
          "type": "uint256"
        }
      ],
      "name": "ERC20InsufficientBalance",
      "type": "error"
    },
    {
      "inputs": [
        {
          "internalType": "address",
          "name": "approver",
          "type": "address"
        }
      ],
      "name": "ERC20InvalidApprover",
      "type": "error"
    },
    {
      "inputs": [
        {
          "internalType": "address",
          "name": "receiver",
          "type": "address"
        }
      ],
      "name": "ERC20InvalidReceiver",
      "type": "error"
    },
    {
      "inputs": [
        {
          "internalType": "address",
          "name": "sender",
          "type": "address"
        }
      ],
      "name": "ERC20InvalidSender",
      "type": "error"
    },
    {
      "inputs": [
        {
          "internalType": "address",
          "name": "spender",
          "type": "address"
        }
      ],
      "name": "ERC20InvalidSpender",
      "type": "error"
    },
    {
      "inputs": [],
      "name": "EnforcedPause",
      "type": "error"
    },
    {
      "inputs": [],
      "name": "ExpectedPause",
      "type": "error"
    },
    {
      "anonymous": false,
      "inputs": [
        {
          "indexed": true,
          "internalType": "address",
          "name": "owner",
          "type": "address"
        },
        {
          "indexed": true,
          "internalType": "address",
          "name": "spender",
          "type": "address"
        },
        {
          "indexed": false,
          "internalType": "uint256",
          "name": "value",
          "type": "uint256"
        }
      ],
      "name": "Approval",
      "type": "event"
    },
    {
      "anonymous": false,
      "inputs": [
        {
          "indexed": false,
          "internalType": "address",
          "name": "account",
          "type": "address"
        }
      ],
      "name": "Paused",
      "type": "event"
    },
    {
      "anonymous": false,
      "inputs": [
        {
          "indexed": true,
          "internalType": "bytes32",
          "name": "role",
          "type": "bytes32"
        },
        {
          "indexed": true,
          "internalType": "bytes32",
          "name": "previousAdminRole",
          "type": "bytes32"
        },
        {
          "indexed": true,
          "internalType": "bytes32",
          "name": "newAdminRole",
          "type": "bytes32"
        }
      ],
      "name": "RoleAdminChanged",
      "type": "event"
    },
    {
      "anonymous": false,
      "inputs": [
        {
          "indexed": true,
          "internalType": "bytes32",
          "name": "role",
          "type": "bytes32"
        },
        {
          "indexed": true,
          "internalType": "address",
          "name": "account",
          "type": "address"
        },
        {
          "indexed": true,
          "internalType": "address",
          "name": "sender",
          "type": "address"
        }
      ],
      "name": "RoleGranted",
      "type": "event"
    },
    {
      "anonymous": false,
      "inputs": [
        {
          "indexed": true,
          "internalType": "bytes32",
          "name": "role",
          "type": "bytes32"
        },
        {
          "indexed": true,
          "internalType": "address",
          "name": "account",
          "type": "address"
        },
        {
          "indexed": true,
          "internalType": "address",
          "name": "sender",
          "type": "address"
        }
      ],
      "name": "RoleRevoked",
      "type": "event"
    },
    {
      "anonymous": false,
      "inputs": [
        {
          "indexed": true,
          "internalType": "address",
          "name": "from",
          "type": "address"
        },
        {
          "indexed": false,
          "internalType": "uint256",
          "name": "amount",
          "type": "uint256"
        }
      ],
      "name": "TokensBurned",
      "type": "event"
    },
    {
      "anonymous": false,
      "inputs": [
        {
          "indexed": true,
          "internalType": "address",
          "name": "to",
          "type": "address"
        },
        {
          "indexed": false,
          "internalType": "uint256",
          "name": "amount",
          "type": "uint256"
        }
      ],
      "name": "TokensMinted",
      "type": "event"
    },
    {
      "anonymous": false,
      "inputs": [
        {
          "indexed": true,
          "internalType": "address",
          "name": "from",
          "type": "address"
        },
        {
          "indexed": true,
          "internalType": "address",
          "name": "to",
          "type": "address"
        },
        {
          "indexed": false,
          "internalType": "uint256",
          "name": "value",
          "type": "uint256"
        }
      ],
      "name": "Transfer",
      "type": "event"
    },
    {
      "anonymous": false,
      "inputs": [
        {
          "indexed": false,
          "internalType": "address",
          "name": "account",
          "type": "address"
        }
      ],
      "name": "Unpaused",
      "type": "event"
    },
    {
      "inputs": [],
      "name": "DEFAULT_ADMIN_ROLE",
      "outputs": [
        {
          "internalType": "bytes32",
          "name": "",
          "type": "bytes32"
        }
      ],
      "stateMutability": "view",
      "type": "function"
    },
    {
      "inputs": [],
      "name": "ISSUER_ROLE",
      "outputs": [
        {
          "internalType": "bytes32",
          "name": "",
          "type": "bytes32"
        }
      ],
      "stateMutability": "view",
      "type": "function"
    },
    {
      "inputs": [],
      "name": "PAUSER_ROLE",
      "outputs": [
        {
          "internalType": "bytes32",
          "name": "",
          "type": "bytes32"
        }
      ],
      "stateMutability": "view",
      "type": "function"
    },
    {
      "inputs": [
        {
          "internalType": "address",
          "name": "owner",
          "type": "address"
        },
        {
          "internalType": "address",
          "name": "spender",
          "type": "address"
        }
      ],
      "name": "allowance",
      "outputs": [
        {
          "internalType": "uint256",
          "name": "",
          "type": "uint256"
        }
      ],
      "stateMutability": "view",
      "type": "function"
    },
    {
      "inputs": [
        {
          "internalType": "address",
          "name": "spender",
          "type": "address"
        },
        {
          "internalType": "uint256",
          "name": "value",
          "type": "uint256"
        }
      ],
      "name": "approve",
      "outputs": [
        {
          "internalType": "bool",
          "name": "",
          "type": "bool"
        }
      ],
      "stateMutability": "nonpayable",
      "type": "function"
    },
    {
      "inputs": [
        {
          "internalType": "address",
          "name": "account",
          "type": "address"
        }
      ],
      "name": "balanceOf",
      "outputs": [
        {
          "internalType": "uint256",
          "name": "",
          "type": "uint256"
        }
      ],
      "stateMutability": "view",
      "type": "function"
    },
    {
      "inputs": [
        {
          "internalType": "uint256",
          "name": "amount",
          "type": "uint256"
        }
      ],
      "name": "burn",
      "outputs": [],
      "stateMutability": "nonpayable",
      "type": "function"
    },
    {
      "inputs": [
        {
          "internalType": "address",
          "name": "account",
          "type": "address"
        },
        {
          "internalType": "uint256",
          "name": "amount",
          "type": "uint256"
        }
      ],
      "name": "burnFrom",
      "outputs": [],
      "stateMutability": "nonpayable",
      "type": "function"
    },
    {
      "inputs": [],
      "name": "compliance",
      "outputs": [
        {
          "internalType": "contract ComplianceModule",
          "name": "",
          "type": "address"
        }
      ],
      "stateMutability": "view",
      "type": "function"
    },
    {
      "inputs": [],
      "name": "decimals",
      "outputs": [
        {
          "internalType": "uint8",
          "name": "",
          "type": "uint8"
        }
      ],
      "stateMutability": "view",
      "type": "function"
    },
    {
      "inputs": [
        {
          "internalType": "bytes32",
          "name": "role",
          "type": "bytes32"
        }
      ],
      "name": "getRoleAdmin",
      "outputs": [
        {
          "internalType": "bytes32",
          "name": "",
          "type": "bytes32"
        }
      ],
      "stateMutability": "view",
      "type": "function"
    },
    {
      "inputs": [
        {
          "internalType": "bytes32",
          "name": "role",
          "type": "bytes32"
        },
        {
          "internalType": "address",
          "name": "account",
          "type": "address"
        }
      ],
      "name": "grantRole",
      "outputs": [],
      "stateMutability": "nonpayable",
      "type": "function"
    },
    {
      "inputs": [
        {
          "internalType": "bytes32",
          "name": "role",
          "type": "bytes32"
        },
        {
          "internalType": "address",
          "name": "account",
          "type": "address"
        }
      ],
      "name": "hasRole",
      "outputs": [
        {
          "internalType": "bool",
          "name": "",
          "type": "bool"
        }
      ],
      "stateMutability": "view",
      "type": "function"
    },
    {
      "inputs": [
        {
          "internalType": "address",
          "name": "to",
          "type": "address"
        },
        {
          "internalType": "uint256",
          "name": "amount",
          "type": "uint256"
        }
      ],
      "name": "mint",
      "outputs": [],
      "stateMutability": "nonpayable",
      "type": "function"
    },
    {
      "inputs": [],
      "name": "name",
      "outputs": [
        {
          "internalType": "string",
          "name": "",
          "type": "string"
        }
      ],
      "stateMutability": "view",
      "type": "function"
    },
    {
      "inputs": [],
      "name": "pause",
      "outputs": [],
      "stateMutability": "nonpayable",
      "type": "function"
    },
    {
      "inputs": [],
      "name": "paused",
      "outputs": [
        {
          "internalType": "bool",
          "name": "",
          "type": "bool"
        }
      ],
      "stateMutability": "view",
      "type": "function"
    },
    {
      "inputs": [
        {
          "internalType": "bytes32",
          "name": "role",
          "type": "bytes32"
        },
        {
          "internalType": "address",
          "name": "callerConfirmation",
          "type": "address"
        }
      ],
      "name": "renounceRole",
      "outputs": [],
      "stateMutability": "nonpayable",
      "type": "function"
    },
    {
      "inputs": [
        {
          "internalType": "bytes32",
          "name": "role",
          "type": "bytes32"
        },
        {
          "internalType": "address",
          "name": "account",
          "type": "address"
        }
      ],
      "name": "revokeRole",
      "outputs": [],
      "stateMutability": "nonpayable",
      "type": "function"
    },
    {
      "inputs": [
        {
          "internalType": "bytes4",
          "name": "interfaceId",
          "type": "bytes4"
        }
      ],
      "name": "supportsInterface",
      "outputs": [
        {
          "internalType": "bool",
          "name": "",
          "type": "bool"
        }
      ],
      "stateMutability": "view",
      "type": "function"
    },
    {
      "inputs": [],
      "name": "symbol",
      "outputs": [
        {
          "internalType": "string",
          "name": "",
          "type": "string"
        }
      ],
      "stateMutability": "view",
      "type": "function"
    },
    {
      "inputs": [],
      "name": "totalSupply",
      "outputs": [
        {
          "internalType": "uint256",
          "name": "",
          "type": "uint256"
        }
      ],
      "stateMutability": "view",
      "type": "function"
    },
    {
      "inputs": [
        {
          "internalType": "address",
          "name": "to",
          "type": "address"
        },
        {
          "internalType": "uint256",
          "name": "value",
          "type": "uint256"
        }
      ],
      "name": "transfer",
      "outputs": [
        {
          "internalType": "bool",
          "name": "",
          "type": "bool"
        }
      ],
      "stateMutability": "nonpayable",
      "type": "function"
    },
    {
      "inputs": [
        {
          "internalType": "address",
          "name": "from",
          "type": "address"
        },
        {
          "internalType": "address",
          "name": "to",
          "type": "address"
        },
        {
          "internalType": "uint256",
          "name": "value",
          "type": "uint256"
        }
      ],
      "name": "transferFrom",
      "outputs": [
        {
          "internalType": "bool",
          "name": "",
          "type": "bool"
        }
      ],
      "stateMutability": "nonpayable",
      "type": "function"
    },
    {
      "inputs": [],
      "name": "unpause",
      "outputs": [],
      "stateMutability": "nonpayable",
      "type": "function"
    }
  ],
  "bytecode": "0x60a060405234801561001057600080fd5b506040516116a23803806116a283398101604081905261002f91610287565b8181600361003d8382610398565b50600461004a8282610398565b5050506001600160a01b0383166100a75760405162461bcd60e51b815260206004820152601a60248201527f496e76616c696420636f6d706c69616e63652061646472657373000000000000604482015260640160405180910390fd5b6001600160a01b0383166080526100bf60003361011e565b506100ea7f114e74f6ea3bd819998f78687bfcb11b140da08e9b7d222fa9c1f1ba1f2aa1223361011e565b506101157f65d7a28e3265b37a6474929f336521b332c1681b933f6cb9f3376673440d862a3361011e565b50505050610456565b60008281526006602090815260408083206001600160a01b038516845290915281205460ff166101c45760008381526006602090815260408083206001600160a01b03861684529091529020805460ff1916600117905561017c3390565b6001600160a01b0316826001600160a01b0316847f2f8788117e7eff1d82e926ec794901d17c78024a50270940304540a733656f0d60405160405180910390a45060016101c8565b5060005b92915050565b634e487b7160e01b600052604160045260246000fd5b600082601f8301126101f557600080fd5b81516001600160401b0381111561020e5761020e6101ce565b604051601f8201601f19908116603f011681016001600160401b038111828210171561023c5761023c6101ce565b60405281815283820160200185101561025457600080fd5b60005b8281101561027357602081860181015183830182015201610257565b506000918101602001919091529392505050565b60008060006060848603121561029c57600080fd5b83516001600160a01b03811681146102b357600080fd5b60208501519093506001600160401b038111156102cf57600080fd5b6102db868287016101e4565b604086015190935090506001600160401b038111156102f957600080fd5b610305868287016101e4565b9150509250925092565b600181811c9082168061032357607f821691505b60208210810361034357634e487b7160e01b600052602260045260246000fd5b50919050565b601f82111561039357806000526020600020601f840160051c810160208510156103705750805b601f840160051c820191505b81811015610390576000815560010161037c565b50505b505050565b81516001600160401b038111156103b1576103b16101ce565b6103c5816103bf845461030f565b84610349565b6020601f8211600181146103f957600083156103e15750848201515b600019600385901b1c1916600184901b178455610390565b600084815260208120601f198516915b828110156104295787850151825560209485019460019092019101610409565b50848210156104475786840151600019600387901b60f8161c191681555b50505050600190811b01905550565b60805161122a610478600039600081816102850152610d70015261122a6000f3fe608060405234801561001057600080fd5b50600436106101735760003560e01c80635c975abb116100de57806391d1485411610097578063a9059cbb11610071578063a9059cbb1461034d578063d547741f14610360578063dd62ed3e14610373578063e63ab1e9146103ac57600080fd5b806391d148541461032a57806395d89b411461033d578063a217fddf1461034557600080fd5b80635c975abb146102755780636290865d1461028057806370a08231146102bf57806379cc6790146102e857806382aefa24146102fb5780638456cb591461032257600080fd5b80632f2ff15d116101305780632f2ff15d14610210578063313ce5671461022557806336568abe146102345780633f4ba83a1461024757806340c10f191461024f57806342966c681461026257600080fd5b806301ffc9a71461017857806306fdde03146101a0578063095ea7b3146101b557806318160ddd146101c857806323b872dd146101da578063248a9ca3146101ed575b600080fd5b61018b610186366004610fb4565b6103d3565b60405190151581526020015b60405180910390f35b6101a86103e4565b6040516101979190610fe5565b61018b6101c336600461104f565b610476565b6002545b604051908152602001610197565b61018b6101e8366004611079565b61048e565b6101cc6101fb3660046110b6565b60009081526006602052604090206001015490565b61022361021e3660046110cf565b6104b2565b005b60405160128152602001610197565b6102236102423660046110cf565b6104dd565b610223610515565b61022361025d36600461104f565b61054a565b6102236102703660046110b6565b610649565b60055460ff1661018b565b6102a77f000000000000000000000000000000000000000000000000000000000000000081565b6040516001600160a01b039091168152602001610197565b6101cc6102cd3660046110fb565b6001600160a01b031660009081526020819052604090205490565b6102236102f636600461104f565b610709565b6101cc7f114e74f6ea3bd819998f78687bfcb11b140da08e9b7d222fa9c1f1ba1f2aa12281565b61022361085b565b61018b6103383660046110cf565b61088d565b6101a86108b8565b6101cc600081565b61018b61035b36600461104f565b6108c7565b61022361036e3660046110cf565b6108d5565b6101cc610381366004611116565b6001600160a01b03918216600090815260016020908152604080832093909416825291909152205490565b6101cc7f65d7a28e3265b37a6474929f336521b332c1681b933f6cb9f3376673440d862a81565b60006103de826108fa565b92915050565b6060600380546103f390611140565b80601f016020809104026020016040519081016040528092919081815260200182805461041f90611140565b801561046c5780601f106104415761010080835404028352916020019161046c565b820191906000526020600020905b81548152906001019060200180831161044f57829003601f168201915b5050505050905090565b60003361048481858561092f565b5060019392505050565b60003361049c85828561093c565b6104a78585856109b5565b506001949350505050565b6000828152600660205260409020600101546104cd81610a14565b6104d78383610a1e565b50505050565b6001600160a01b03811633146105065760405163334bd91960e11b815260040160405180910390fd5b6105108282610ab2565b505050565b7f65d7a28e3265b37a6474929f336521b332c1681b933f6cb9f3376673440d862a61053f81610a14565b610547610b1f565b50565b7f114e74f6ea3bd819998f78687bfcb11b140da08e9b7d222fa9c1f1ba1f2aa12261057481610a14565b61057c610b71565b6001600160a01b0383166105d75760405162461bcd60e51b815260206004820152601b60248201527f43616e6e6f74206d696e7420746f207a65726f2061646472657373000000000060448201526064015b60405180910390fd5b600082116105f75760405162461bcd60e51b81526004016105ce9061117a565b6106018383610b97565b826001600160a01b03167f3f2c9d57c068687834f0de942a9babb9e5acab57d516d3480a3c16ee165a42738360405161063c91815260200190565b60405180910390a2505050565b610651610b71565b600081116106715760405162461bcd60e51b81526004016105ce9061117a565b336000908152602081905260409020548111156106c75760405162461bcd60e51b8152602060048201526014602482015273496e73756666696369656e742062616c616e636560601b60448201526064016105ce565b6106d13382610bd1565b60405181815233907ffd38818f5291bf0bb3a2a48aadc06ba8757865d1dabd804585338aab3009dcb69060200160405180910390a250565b7f114e74f6ea3bd819998f78687bfcb11b140da08e9b7d222fa9c1f1ba1f2aa12261073381610a14565b61073b610b71565b6001600160a01b0383166107915760405162461bcd60e51b815260206004820152601d60248201527f43616e6e6f74206275726e2066726f6d207a65726f206164647265737300000060448201526064016105ce565b600082116107b15760405162461bcd60e51b81526004016105ce9061117a565b816107d1846001600160a01b031660009081526020819052604090205490565b10156108165760405162461bcd60e51b8152602060048201526014602482015273496e73756666696369656e742062616c616e636560601b60448201526064016105ce565b6108208383610bd1565b826001600160a01b03167ffd38818f5291bf0bb3a2a48aadc06ba8757865d1dabd804585338aab3009dcb68360405161063c91815260200190565b7f65d7a28e3265b37a6474929f336521b332c1681b933f6cb9f3376673440d862a61088581610a14565b610547610c07565b60009182526006602090815260408084206001600160a01b0393909316845291905290205460ff1690565b6060600480546103f390611140565b6000336104848185856109b5565b6000828152600660205260409020600101546108f081610a14565b6104d78383610ab2565b60006001600160e01b03198216637965db0b60e01b14806103de57506301ffc9a760e01b6001600160e01b03198316146103de565b6105108383836001610c44565b6001600160a01b038381166000908152600160209081526040808320938616835292905220546000198110156104d757818110156109a657604051637dc7a0d960e11b81526001600160a01b038416600482015260248101829052604481018390526064016105ce565b6104d784848484036000610c44565b6001600160a01b0383166109df57604051634b637e8f60e11b8152600060048201526024016105ce565b6001600160a01b038216610a095760405163ec442f0560e01b8152600060048201526024016105ce565b610510838383610d19565b6105478133610e20565b6000610a2a838361088d565b610aaa5760008381526006602090815260408083206001600160a01b03861684529091529020805460ff19166001179055610a623390565b6001600160a01b0316826001600160a01b0316847f2f8788117e7eff1d82e926ec794901d17c78024a50270940304540a733656f0d60405160405180910390a45060016103de565b5060006103de565b6000610abe838361088d565b15610aaa5760008381526006602090815260408083206001600160a01b0386168085529252808320805460ff1916905551339286917ff6391f5c32d9c69d2a47ea670b442974b53935d1edc7fd64eb21e047a839171b9190a45060016103de565b610b27610e59565b6005805460ff191690557f5db9ee0a495bf2e6ff9c91a7834c1ba4fdd244a5e8aa4e537bd38aeae4b073aa335b6040516001600160a01b03909116815260200160405180910390a1565b60055460ff1615610b955760405163d93c066560e01b815260040160405180910390fd5b565b6001600160a01b038216610bc15760405163ec442f0560e01b8152600060048201526024016105ce565b610bcd60008383610d19565b5050565b6001600160a01b038216610bfb57604051634b637e8f60e11b8152600060048201526024016105ce565b610bcd82600083610d19565b610c0f610b71565b6005805460ff191660011790557f62e78cea01bee320cd4e420270b5ea74000d11b0c9f74754ebdbfc544b05a258610b543390565b6001600160a01b038416610c6e5760405163e602df0560e01b8152600060048201526024016105ce565b6001600160a01b038316610c9857604051634a1406b160e11b8152600060048201526024016105ce565b6001600160a01b03808516600090815260016020908152604080832093871683529290522082905580156104d757826001600160a01b0316846001600160a01b03167f8c5be1e5ebec7d5bd14f71427d1e84f3dd0314c0f7b2291e5b200ac8c7c3b92584604051610d0b91815260200190565b60405180910390a350505050565b610d24838383610e7c565b6001600160a01b03831615801590610d4457506001600160a01b03821615155b15610510576040516397e2b9af60e01b81526001600160a01b03848116600483015283811660248301527f000000000000000000000000000000000000000000000000000000000000000016906397e2b9af90604401602060405180830381865afa158015610db7573d6000803e3d6000fd5b505050506040513d601f19601f82011682018060405250810190610ddb91906111b1565b6105105760405162461bcd60e51b8152602060048201526016602482015275151c985b9cd9995c881b9bdd0818dbdb5c1b1a585b9d60521b60448201526064016105ce565b610e2a828261088d565b610bcd5760405163e2517d3f60e01b81526001600160a01b0382166004820152602481018390526044016105ce565b60055460ff16610b9557604051638dfc202b60e01b815260040160405180910390fd5b610e84610b71565b6105108383836001600160a01b038316610eb5578060026000828254610eaa91906111d3565b90915550610f279050565b6001600160a01b03831660009081526020819052604090205481811015610f085760405163391434e360e21b81526001600160a01b038516600482015260248101829052604481018390526064016105ce565b6001600160a01b03841660009081526020819052604090209082900390555b6001600160a01b038216610f4357600280548290039055610f62565b6001600160a01b03821660009081526020819052604090208054820190555b816001600160a01b0316836001600160a01b03167fddf252ad1be2c89b69c2b068fc378daa952ba7f163c4a11628f55a4df523b3ef83604051610fa791815260200190565b60405180910390a3505050565b600060208284031215610fc657600080fd5b81356001600160e01b031981168114610fde57600080fd5b9392505050565b602081526000825180602084015260005b818110156110135760208186018101516040868401015201610ff6565b506000604082850101526040601f19601f83011684010191505092915050565b80356001600160a01b038116811461104a57600080fd5b919050565b6000806040838503121561106257600080fd5b61106b83611033565b946020939093013593505050565b60008060006060848603121561108e57600080fd5b61109784611033565b92506110a560208501611033565b929592945050506040919091013590565b6000602082840312156110c857600080fd5b5035919050565b600080604083850312156110e257600080fd5b823591506110f260208401611033565b90509250929050565b60006020828403121561110d57600080fd5b610fde82611033565b6000806040838503121561112957600080fd5b61113283611033565b91506110f260208401611033565b600181811c9082168061115457607f821691505b60208210810361117457634e487b7160e01b600052602260045260246000fd5b50919050565b6020808252601d908201527f416d6f756e74206d7573742062652067726561746572207468616e2030000000604082015260600190565b6000602082840312156111c357600080fd5b81518015158114610fde57600080fd5b808201808211156103de57634e487b7160e01b600052601160045260246000fdfea264697066735822122014ea6147c994f954eb623ee2e90a87521312d891fec20381a3d9097fd5b7182c64736f6c634300081c0033",
  "linkReferences": {},
  "deployedLinkReferences": {}
}