{
  "_format": "hh-sol-artifact-1",
  "contractName": "ComplianceModule",
  "sourceName": "contracts/ComplianceModule.sol",
  "abi": [
    {
      "inputs": [
        {
          "internalType": "address",
          "name": "_registry",
          "type": "address"
        }
      ],
      "stateMutability": "nonpayable",
      "type": "constructor"
    },
    {
      "inputs": [
        {
          "internalType": "address",
          "name": "owner",
          "type": "address"
        }
      ],
      "name": "OwnableInvalidOwner",
      "type": "error"
    },
    {
      "inputs": [
        {
          "internalType": "address",
          "name": "account",
          "type": "address"
        }
      ],
      "name": "OwnableUnauthorizedAccount",
      "type": "error"
    },
    {
      "inputs": [],
      "name": "ReentrancyGuardReentrantCall",
      "type": "error"
    },
    {
      "anonymous": false,
      "inputs": [
        {
          "indexed": true,
          "internalType": "address",
          "name": "user",
          "type": "address"
        }
      ],
      "name": "AddressBlacklisted",
      "type": "event"
    },
    {
      "anonymous": false,
      "inputs": [
        {
          "indexed": true,
          "internalType": "address",
          "name": "user",
          "type": "address"
        }
      ],
      "name": "AddressWhitelisted",
      "type": "event"
    },
    {
      "anonymous": false,
      "inputs": [
        {
          "indexed": false,
          "internalType": "bool",
          "name": "enabled",
          "type": "bool"
        }
      ],
      "name": "BlacklistToggled",
      "type": "event"
    },
    {
      "anonymous": false,
      "inputs": [
        {
          "indexed": false,
          "internalType": "string",
          "name": "country",
          "type": "string"
        }
      ],
      "name": "CountryAllowed",
      "type": "event"
    },
    {
      "anonymous": false,
      "inputs": [
        {
          "indexed": false,
          "internalType": "string",
          "name": "country",
          "type": "string"
        }
      ],
      "name": "CountryDisallowed",
      "type": "event"
    },
    {
      "anonymous": false,
      "inputs": [
        {
          "indexed": false,
          "internalType": "bool",
          "name": "enabled",
          "type": "bool"
        }
      ],
      "name": "CountryRestrictionsToggled",
      "type": "event"
    },
    {
      "anonymous": false,
      "inputs": [
        {
          "indexed": false,
          "internalType": "uint256",
          "name": "limit",
          "type": "uint256"
        }
      ],
      "name": "DailyTransferLimitSet",
      "type": "event"
    },
    {
      "anonymous": false,
      "inputs": [
        {
          "indexed": false,
          "internalType": "uint256",
          "name": "amount",
          "type": "uint256"
        }
      ],
      "name": "MaxTransferAmountSet",
      "type": "event"
    },
    {
      "anonymous": false,
      "inputs": [
        {
          "indexed": true,
          "internalType": "address",
          "name": "previousOwner",
          "type": "address"
        },
        {
          "indexed": true,
          "internalType": "address",
          "name": "newOwner",
          "type": "address"
        }
      ],
      "name": "OwnershipTransferred",
      "type": "event"
    },
    {
      "inputs": [
        {
          "internalType": "string",
          "name": "",
          "type": "string"
        }
      ],
      "name": "allowedCountries",
      "outputs": [
        {
          "internalType": "bool",
          "name": "",
          "type": "bool"
        }
      ],
      "stateMutability": "view",
      "type": "function"
    },
    {
      "inputs": [
        {
          "internalType": "address[]",
          "name": "users",
          "type": "address[]"
        },
        {
          "internalType": "bool[]",
          "name": "blacklisted",
          "type": "bool[]"
        }
      ],
      "name": "batchSetAddressesBlacklisted",
      "outputs": [],
      "stateMutability": "nonpayable",
      "type": "function"
    },
    {
      "inputs": [
        {
          "internalType": "string[]",
          "name": "countries",
          "type": "string[]"
        },
        {
          "internalType": "bool[]",
          "name": "allowed",
          "type": "bool[]"
        }
      ],
      "name": "batchSetCountriesAllowed",
      "outputs": [],
      "stateMutability": "nonpayable",
      "type": "function"
    },
    {
      "inputs": [],
      "name": "blacklistEnabled",
      "outputs": [
        {
          "internalType": "bool",
          "name": "",
          "type": "bool"
        }
      ],
      "stateMutability": "view",
      "type": "function"
    },
    {
      "inputs": [
        {
          "internalType": "address",
          "name": "",
          "type": "address"
        }
      ],
      "name": "blacklistedAddresses",
      "outputs": [
        {
          "internalType": "bool",
          "name": "",
          "type": "bool"
        }
      ],
      "stateMutability": "view",
      "type": "function"
    },
    {
      "inputs": [],
      "name": "countryRestrictionsEnabled",
      "outputs": [
        {
          "internalType": "bool",
          "name": "",
          "type": "bool"
        }
      ],
      "stateMutability": "view",
      "type": "function"
    },
    {
      "inputs": [],
      "name": "dailyTransferLimit",
      "outputs": [
        {
          "internalType": "uint256",
          "name": "",
          "type": "uint256"
        }
      ],
      "stateMutability": "view",
      "type": "function"
    },
    {
      "inputs": [
        {
          "internalType": "address",
          "name": "",
          "type": "address"
        },
        {
          "internalType": "uint256",
          "name": "",
          "type": "uint256"
        }
      ],
      "name": "dailyTransfers",
      "outputs": [
        {
          "internalType": "uint256",
          "name": "",
          "type": "uint256"
        }
      ],
      "stateMutability": "view",
      "type": "function"
    },
    {
      "inputs": [
        {
          "internalType": "address",
          "name": "user",
          "type": "address"
        }
      ],
      "name": "getCurrentDayTransferAmount",
      "outputs": [
        {
          "internalType": "uint256",
          "name": "",
          "type": "uint256"
        }
      ],
      "stateMutability": "view",
      "type": "function"
    },
    {
      "inputs": [
        {
          "internalType": "address",
          "name": "user",
          "type": "address"
        },
        {
          "internalType": "uint256",
          "name": "day",
          "type": "uint256"
        }
      ],
      "name": "getDailyTransferAmount",
      "outputs": [
        {
          "internalType": "uint256",
          "name": "",
          "type": "uint256"
        }
      ],
      "stateMutability": "view",
      "type": "function"
    },
    {
      "inputs": [
        {
          "internalType": "address",
          "name": "user",
          "type": "address"
        }
      ],
      "name": "getRemainingDailyLimit",
      "outputs": [
        {
          "internalType": "uint256",
          "name": "",
          "type": "uint256"
        }
      ],
      "stateMutability": "view",
      "type": "function"
    },
    {
      "inputs": [
        {
          "internalType": "address",
          "name": "user",
          "type": "address"
        }
      ],
      "name": "isAddressBlacklisted",
      "outputs": [
        {
          "internalType": "bool",
          "name": "",
          "type": "bool"
        }
      ],
      "stateMutability": "view",
      "type": "function"
    },
    {
      "inputs": [
        {
          "internalType": "string",
          "name": "_country",
          "type": "string"
        }
      ],
      "name": "isCountryAllowed",
      "outputs": [
        {
          "internalType": "bool",
          "name": "",
          "type": "bool"
        }
      ],
      "stateMutability": "view",
      "type": "function"
    },
    {
      "inputs": [
        {
          "internalType": "address",
          "name": "from",
          "type": "address"
        },
        {
          "internalType": "address",
          "name": "to",
          "type": "address"
        }
      ],
      "name": "isTransferAllowed",
      "outputs": [
        {
          "internalType": "bool",
          "name": "",
          "type": "bool"
        }
      ],
      "stateMutability": "view",
      "type": "function"
    },
    {
      "inputs": [
        {
          "internalType": "address",
          "name": "from",
          "type": "address"
        },
        {
          "internalType": "address",
          "name": "to",
          "type": "address"
        },
        {
          "internalType": "uint256",
          "name": "amount",
          "type": "uint256"
        }
      ],
      "name": "isTransferAllowedWithAmount",
      "outputs": [
        {
          "internalType": "bool",
          "name": "",
          "type": "bool"
        }
      ],
      "stateMutability": "view",
      "type": "function"
    },
    {
      "inputs": [],
      "name": "maxTransferAmount",
      "outputs": [
        {
          "internalType": "uint256",
          "name": "",
          "type": "uint256"
        }
      ],
      "stateMutability": "view",
      "type": "function"
    },
    {
      "inputs": [],
      "name": "owner",
      "outputs": [
        {
          "internalType": "address",
          "name": "",
          "type": "address"
        }
      ],
      "stateMutability": "view",
      "type": "function"
    },
    {
      "inputs": [
        {
          "internalType": "address",
          "name": "from",
          "type": "address"
        },
        {
          "internalType": "uint256",
          "name": "amount",
          "type": "uint256"
        }
      ],
      "name": "recordTransfer",
      "outputs": [],
      "stateMutability": "nonpayable",
      "type": "function"
    },
    {
      "inputs": [],
      "name": "registry",
      "outputs": [
        {
          "internalType": "contract IdentityRegistry",
          "name": "",
          "type": "address"
        }
      ],
      "stateMutability": "view",
      "type": "function"
    },
    {
      "inputs": [],
      "name": "renounceOwnership",
      "outputs": [],
      "stateMutability": "nonpayable",
      "type": "function"
    },
    {
      "inputs": [
        {
          "internalType": "address",
          "name": "user",
          "type": "address"
        },
        {
          "internalType": "bool",
          "name": "blacklisted",
          "type": "bool"
        }
      ],
      "name": "setAddressBlacklisted",
      "outputs": [],
      "stateMutability": "nonpayable",
      "type": "function"
    },
    {
      "inputs": [
        {
          "internalType": "string",
          "name": "_country",
          "type": "string"
        },
        {
          "internalType": "bool",
          "name": "allowed",
          "type": "bool"
        }
      ],
      "name": "setCountryAllowed",
      "outputs": [],
      "stateMutability": "nonpayable",
      "type": "function"
    },
    {
      "inputs": [
        {
          "internalType": "uint256",
          "name": "limit",
          "type": "uint256"
        }
      ],
      "name": "setDailyTransferLimit",
      "outputs": [],
      "stateMutability": "nonpayable",
      "type": "function"
    },
    {
      "inputs": [
        {
          "internalType": "uint256",
          "name": "amount",
          "type": "uint256"
        }
      ],
      "name": "setMaxTransferAmount",
      "outputs": [],
      "stateMutability": "nonpayable",
      "type": "function"
    },
    {
      "inputs": [
        {
          "internalType": "bool",
          "name": "enabled",
          "type": "bool"
        }
      ],
      "name": "toggleBlacklist",
      "outputs": [],
      "stateMutability": "nonpayable",
      "type": "function"
    },
    {
      "inputs": [
        {
          "internalType": "bool",
          "name": "enabled",
          "type": "bool"
        }
      ],
      "name": "toggleCountryRestrictions",
      "outputs": [],
      "stateMutability": "nonpayable",
      "type": "function"
    },
    {
      "inputs": [
        {
          "internalType": "address",
          "name": "newOwner",
          "type": "address"
        }
      ],
      "name": "transferOwnership",
      "outputs": [],
      "stateMutability": "nonpayable",
      "type": "function"
    }
  ],
  "bytecode": "0x60a060405234801561001057600080fd5b50604051611b6a380380611b6a83398101604081905261002f91610135565b338061005657604051631e4fbdf760e01b8152600060048201526024015b60405180910390fd5b61005f816100e5565b50600180556001600160a01b0381166100ba5760405162461bcd60e51b815260206004820152601860248201527f496e76616c696420726567697374727920616464726573730000000000000000604482015260640161004d565b6001600160a01b03166080526004805461ffff19166101001790556000196005819055600655610165565b600080546001600160a01b038381166001600160a01b0319831681178455604051919092169283917f8be0079c531659141344cd1fd0a4f28419497f9722a3daafe3b4186f6b6457e09190a35050565b60006020828403121561014757600080fd5b81516001600160a01b038116811461015e57600080fd5b9392505050565b6080516119ce61019c6000396000818161025f01528181611060015281816110f101528181611198015261122e01526119ce6000f3fe608060405234801561001057600080fd5b50600436106101a95760003560e01c806397e2b9af116100f9578063d5749d4211610097578063e89c0cae11610071578063e89c0cae146103be578063ec37d259146103ec578063f2fde38b146103ff578063f714af6f1461041257600080fd5b8063d5749d4214610375578063d842542d14610398578063e5f81ba8146103ab57600080fd5b8063ae6d125d116100d3578063ae6d125d1461032a578063bffb691d1461033d578063c79841961461034f578063cdfca2d11461036257600080fd5b806397e2b9af146102fb578063a31bcff41461030e578063a9e757231461032157600080fd5b806373ac83ef116101665780638752183f116101405780638752183f146102995780638bf55409146102c45780638da5cb5b146102d757806390683e8c146102e857600080fd5b806373ac83ef146102345780637572a9db146102475780637b1039991461025a57600080fd5b80630d8c8b81146101ae5780633c2d4370146101d057806354769c7c146101f15780635991d72d146102045780635b1d60ec14610219578063715018a61461022c575b600080fd5b6004546101bb9060ff1681565b60405190151581526020015b60405180910390f35b6101e36101de366004611413565b61041b565b6040519081526020016101c7565b6101bb6101ff36600461143d565b610446565b6102176102123660046114d1565b61045d565b005b6101e3610227366004611528565b6105a2565b6102176105df565b610217610242366004611413565b6105f3565b610217610255366004611543565b610691565b6102817f000000000000000000000000000000000000000000000000000000000000000081565b6040516001600160a01b0390911681526020016101c7565b6101e36102a7366004611413565b600760209081526000928352604080842090915290825290205481565b6102176102d2366004611560565b6106ed565b6000546001600160a01b0316610281565b6101bb6102f6366004611528565b61072a565b6101bb610309366004611579565b610763565b61021761031c3660046115f1565b610771565b6101e360055481565b610217610338366004611662565b610a39565b6004546101bb90610100900460ff1681565b6101bb61035d366004611699565b610b2b565b610217610370366004611560565b610b6d565b6101bb610383366004611528565b60036020526000908152604090205460ff1681565b6102176103a6366004611543565b610baa565b6102176103b93660046115f1565b610bf3565b6101bb6103cc36600461174a565b805160208183018101805160028252928201919093012091525460ff1681565b6101e36103fa366004611528565b610f1a565b61021761040d366004611528565b610f7b565b6101e360065481565b6001600160a01b03821660009081526007602090815260408083208484529091529020545b92915050565b6000610453848484610fb9565b90505b9392505050565b61046561137a565b816104b15760405162461bcd60e51b8152602060048201526017602482015276436f756e7472792063616e6e6f7420626520656d70747960481b60448201526064015b60405180910390fd5b60328211156104fa5760405162461bcd60e51b8152602060048201526015602482015274436f756e747279206e616d6520746f6f206c6f6e6760581b60448201526064016104a8565b806002848460405161050d9291906117ca565b908152604051908190036020019020805491151560ff199092169190911790558015610571577f575662e52602903dd01c608fbd6b89a4ca8eeca709ad678f0ac222557da6932383836040516105649291906117da565b60405180910390a1505050565b7f8d7bd3108747131fc344660ee7e041f60e59e35ff2aa8c3f1a8f60d0ee87cd0983836040516105649291906117da565b6000806105b2620151804261181f565b6001600160a01b039093166000908152600760209081526040808320958352949052929092205492915050565b6105e761137a565b6105f160006113a7565b565b6001600160a01b0382166106405760405162461bcd60e51b8152602060048201526014602482015273496e76616c69642066726f6d206164647265737360601b60448201526064016104a8565b600061064f620151804261181f565b6001600160a01b0384166000908152600760209081526040808320848452909152812080549293508492909190610687908490611841565b9091555050505050565b61069961137a565b600480548215156101000261ff00199091161790556040517fccd519f48168e6686a60c17f498beb5648a34293377366f8fb272f23a19aa674906106e290831515815260200190565b60405180910390a150565b6106f561137a565b60058190556040518181527fd82d7466dbfb0b68291841d1adf74df365a848cd534d11e8c6b238ec9fb5ebe6906020016106e2565b600454600090610100900460ff1661074457506000919050565b506001600160a01b031660009081526003602052604090205460ff1690565b600061045683836000610fb9565b61077961137a565b8281146107c15760405162461bcd60e51b8152602060048201526016602482015275082e4e4c2f2e640d8cadccee8d040dad2e6dac2e8c6d60531b60448201526064016104a8565b826107fd5760405162461bcd60e51b815260206004820152600c60248201526b456d7074792061727261797360a01b60448201526064016104a8565b60648311156108455760405162461bcd60e51b815260206004820152601460248201527342617463682073697a6520746f6f206c6172676560601b60448201526064016104a8565b60005b83811015610a3257600085858381811061086457610864611854565b90506020020160208101906108799190611528565b6001600160a01b0316036108c65760405162461bcd60e51b8152602060048201526014602482015273496e76616c69642075736572206164647265737360601b60448201526064016104a8565b8282828181106108d8576108d8611854565b90506020020160208101906108ed9190611543565b6003600087878581811061090357610903611854565b90506020020160208101906109189190611528565b6001600160a01b031681526020810191909152604001600020805460ff191691151591909117905582828281811061095257610952611854565b90506020020160208101906109679190611543565b156109cd5784848281811061097e5761097e611854565b90506020020160208101906109939190611528565b6001600160a01b03167fdaf49ab9345b6cb75bcb5a7f726bff9183c34dcf5c098c385730f9fd893765f660405160405180910390a2610a2a565b8484828181106109df576109df611854565b90506020020160208101906109f49190611528565b6001600160a01b03167f4f783c179409b4127238bc9c990bc99b9a651666a0d20b51d6c42849eb88466d60405160405180910390a25b600101610848565b5050505050565b610a4161137a565b6001600160a01b038216610a8e5760405162461bcd60e51b8152602060048201526014602482015273496e76616c69642075736572206164647265737360601b60448201526064016104a8565b6001600160a01b0382166000908152600360205260409020805460ff19168215801591909117909155610af3576040516001600160a01b038316907fdaf49ab9345b6cb75bcb5a7f726bff9183c34dcf5c098c385730f9fd893765f690600090a25050565b6040516001600160a01b038316907f4f783c179409b4127238bc9c990bc99b9a651666a0d20b51d6c42849eb88466d90600090a25050565b60045460009060ff16610b4057506001610440565b60028383604051610b529291906117ca565b9081526040519081900360200190205460ff16905092915050565b610b7561137a565b60068190556040518181527f5e85f048c530ff8a1a8a4622cb6c7894a0f8366e32cf7e61c1367be3431c106b906020016106e2565b610bb261137a565b6004805460ff19168215159081179091556040519081527fcee01ef3e406b28bfacfca596efe0d2db5f6870757cdc806b8494ac2467fb6da906020016106e2565b610bfb61137a565b828114610c435760405162461bcd60e51b8152602060048201526016602482015275082e4e4c2f2e640d8cadccee8d040dad2e6dac2e8c6d60531b60448201526064016104a8565b82610c7f5760405162461bcd60e51b815260206004820152600c60248201526b456d7074792061727261797360a01b60448201526064016104a8565b6032831115610cc75760405162461bcd60e51b815260206004820152601460248201527342617463682073697a6520746f6f206c6172676560601b60448201526064016104a8565b60005b83811015610a32576000858583818110610ce657610ce6611854565b9050602002810190610cf8919061186a565b905011610d415760405162461bcd60e51b8152602060048201526017602482015276436f756e7472792063616e6e6f7420626520656d70747960481b60448201526064016104a8565b6032858583818110610d5557610d55611854565b9050602002810190610d67919061186a565b90501115610daf5760405162461bcd60e51b8152602060048201526015602482015274436f756e747279206e616d6520746f6f206c6f6e6760581b60448201526064016104a8565b828282818110610dc157610dc1611854565b9050602002016020810190610dd69190611543565b6002868684818110610dea57610dea611854565b9050602002810190610dfc919061186a565b604051610e0a9291906117ca565b908152604051908190036020019020805491151560ff19909216919091179055828282818110610e3c57610e3c611854565b9050602002016020810190610e519190611543565b15610eb6577f575662e52602903dd01c608fbd6b89a4ca8eeca709ad678f0ac222557da69323858583818110610e8957610e89611854565b9050602002810190610e9b919061186a565b604051610ea99291906117da565b60405180910390a1610f12565b7f8d7bd3108747131fc344660ee7e041f60e59e35ff2aa8c3f1a8f60d0ee87cd09858583818110610ee957610ee9611854565b9050602002810190610efb919061186a565b604051610f099291906117da565b60405180910390a15b600101610cca565b600080610f2a620151804261181f565b6001600160a01b0384166000908152600760209081526040808320848452909152902054600654919250908110610f65575060009392505050565b80600654610f7391906118b1565b949350505050565b610f8361137a565b6001600160a01b038116610fad57604051631e4fbdf760e01b8152600060048201526024016104a8565b610fb6816113a7565b50565b60006001600160a01b0384161580610fd857506001600160a01b038316155b15610fe557506001610456565b600454610100900460ff1615611041576001600160a01b03841660009081526003602052604090205460ff168061103457506001600160a01b03831660009081526003602052604090205460ff165b1561104157506000610456565b60405163b9209e3360e01b81526001600160a01b0385811660048301527f0000000000000000000000000000000000000000000000000000000000000000169063b9209e3390602401602060405180830381865afa1580156110a7573d6000803e3d6000fd5b505050506040513d601f19601f820116820180604052508101906110cb91906118c4565b158061115e575060405163b9209e3360e01b81526001600160a01b0384811660048301527f0000000000000000000000000000000000000000000000000000000000000000169063b9209e3390602401602060405180830381865afa158015611138573d6000803e3d6000fd5b505050506040513d601f19601f8201168201806040525081019061115c91906118c4565b155b1561116b57506000610456565b60045460ff161561130157604051630b2c5ab760e21b81526001600160a01b0385811660048301526000917f000000000000000000000000000000000000000000000000000000000000000090911690632cb16adc90602401600060405180830381865afa1580156111e1573d6000803e3d6000fd5b505050506040513d6000823e601f3d908101601f191682016040526112099190810190611905565b604051630b2c5ab760e21b81526001600160a01b0386811660048301529192506000917f00000000000000000000000000000000000000000000000000000000000000001690632cb16adc90602401600060405180830381865afa158015611275573d6000803e3d6000fd5b505050506040513d6000823e601f3d908101601f1916820160405261129d9190810190611905565b90506002826040516112af919061197c565b9081526040519081900360200190205460ff1615806112ee57506002816040516112d9919061197c565b9081526040519081900360200190205460ff16155b156112fe57600092505050610456565b50505b81156113705760055482111561131957506000610456565b6000611328620151804261181f565b6006546001600160a01b03871660009081526007602090815260408083208584529091529020549192509061135e908590611841565b111561136e576000915050610456565b505b5060019392505050565b6000546001600160a01b031633146105f15760405163118cdaa760e01b81523360048201526024016104a8565b600080546001600160a01b038381166001600160a01b0319831681178455604051919092169283917f8be0079c531659141344cd1fd0a4f28419497f9722a3daafe3b4186f6b6457e09190a35050565b80356001600160a01b038116811461140e57600080fd5b919050565b6000806040838503121561142657600080fd5b61142f836113f7565b946020939093013593505050565b60008060006060848603121561145257600080fd5b61145b846113f7565b9250611469602085016113f7565b929592945050506040919091013590565b60008083601f84011261148c57600080fd5b50813567ffffffffffffffff8111156114a457600080fd5b6020830191508360208285010111156114bc57600080fd5b9250929050565b8015158114610fb657600080fd5b6000806000604084860312156114e657600080fd5b833567ffffffffffffffff8111156114fd57600080fd5b6115098682870161147a565b909450925050602084013561151d816114c3565b809150509250925092565b60006020828403121561153a57600080fd5b610456826113f7565b60006020828403121561155557600080fd5b8135610456816114c3565b60006020828403121561157257600080fd5b5035919050565b6000806040838503121561158c57600080fd5b611595836113f7565b91506115a3602084016113f7565b90509250929050565b60008083601f8401126115be57600080fd5b50813567ffffffffffffffff8111156115d657600080fd5b6020830191508360208260051b85010111156114bc57600080fd5b6000806000806040858703121561160757600080fd5b843567ffffffffffffffff81111561161e57600080fd5b61162a878288016115ac565b909550935050602085013567ffffffffffffffff81111561164a57600080fd5b611656878288016115ac565b95989497509550505050565b6000806040838503121561167557600080fd5b61167e836113f7565b9150602083013561168e816114c3565b809150509250929050565b600080602083850312156116ac57600080fd5b823567ffffffffffffffff8111156116c357600080fd5b6116cf8582860161147a565b90969095509350505050565b634e487b7160e01b600052604160045260246000fd5b604051601f8201601f1916810167ffffffffffffffff8111828210171561171a5761171a6116db565b604052919050565b600067ffffffffffffffff82111561173c5761173c6116db565b50601f01601f191660200190565b60006020828403121561175c57600080fd5b813567ffffffffffffffff81111561177357600080fd5b8201601f8101841361178457600080fd5b803561179761179282611722565b6116f1565b8181528560208385010111156117ac57600080fd5b81602084016020830137600091810160200191909152949350505050565b8183823760009101908152919050565b60208152816020820152818360408301376000818301604090810191909152601f909201601f19160101919050565b634e487b7160e01b600052601160045260246000fd5b60008261183c57634e487b7160e01b600052601260045260246000fd5b500490565b8082018082111561044057610440611809565b634e487b7160e01b600052603260045260246000fd5b6000808335601e1984360301811261188157600080fd5b83018035915067ffffffffffffffff82111561189c57600080fd5b6020019150368190038213156114bc57600080fd5b8181038181111561044057610440611809565b6000602082840312156118d657600080fd5b8151610456816114c3565b60005b838110156118fc5781810151838201526020016118e4565b50506000910152565b60006020828403121561191757600080fd5b815167ffffffffffffffff81111561192e57600080fd5b8201601f8101841361193f57600080fd5b805161194d61179282611722565b81815285602083850101111561196257600080fd5b6119738260208301602086016118e1565b95945050505050565b6000825161198e8184602087016118e1565b919091019291505056fea2646970667358221220b94adda5bd66b061a5c1fa8e7f3c516c5f7e33f3fae30de29dbd6727b395153c64736f6c634300081c0033",
  "linkReferences": {},
  "deployedLinkReferences": {}
}